{
  "contractName": "Auctions",
  "abi": [
    {
      "inputs": [],
      "stateMutability": "nonpayable",
      "type": "constructor"
    },
    {
      "anonymous": false,
      "inputs": [
        {
          "indexed": true,
          "internalType": "address",
          "name": "orderId",
          "type": "address"
        },
        {
          "indexed": true,
          "internalType": "uint256",
          "name": "tokenId",
          "type": "uint256"
        },
        {
          "indexed": false,
          "internalType": "address",
          "name": "bidder",
          "type": "address"
        },
        {
          "indexed": false,
          "internalType": "uint256",
          "name": "price",
          "type": "uint256"
        },
        {
          "indexed": false,
          "internalType": "uint256",
          "name": "time",
          "type": "uint256"
        }
      ],
      "name": "logBid",
      "type": "event"
    },
    {
      "anonymous": false,
      "inputs": [
        {
          "indexed": true,
          "internalType": "address",
          "name": "orderId",
          "type": "address"
        },
        {
          "indexed": true,
          "internalType": "uint256",
          "name": "tokenId",
          "type": "uint256"
        },
        {
          "indexed": false,
          "internalType": "uint256",
          "name": "time",
          "type": "uint256"
        }
      ],
      "name": "logCancel",
      "type": "event"
    },
    {
      "anonymous": false,
      "inputs": [
        {
          "indexed": true,
          "internalType": "address",
          "name": "orderId",
          "type": "address"
        },
        {
          "indexed": true,
          "internalType": "uint256",
          "name": "tokenId",
          "type": "uint256"
        },
        {
          "indexed": false,
          "internalType": "address",
          "name": "buyer",
          "type": "address"
        },
        {
          "indexed": false,
          "internalType": "uint256",
          "name": "price",
          "type": "uint256"
        },
        {
          "indexed": false,
          "internalType": "uint256",
          "name": "fees",
          "type": "uint256"
        },
        {
          "indexed": false,
          "internalType": "uint256",
          "name": "royalties",
          "type": "uint256"
        },
        {
          "indexed": false,
          "internalType": "uint256",
          "name": "time",
          "type": "uint256"
        }
      ],
      "name": "logClaim",
      "type": "event"
    },
    {
      "anonymous": false,
      "inputs": [
        {
          "indexed": true,
          "internalType": "address",
          "name": "orderId",
          "type": "address"
        },
        {
          "indexed": true,
          "internalType": "uint256",
          "name": "tokenId",
          "type": "uint256"
        },
        {
          "indexed": false,
          "internalType": "uint256",
          "name": "time",
          "type": "uint256"
        }
      ],
      "name": "logClose",
      "type": "event"
    },
    {
      "anonymous": false,
      "inputs": [
        {
          "indexed": true,
          "internalType": "address",
          "name": "orderId",
          "type": "address"
        },
        {
          "indexed": true,
          "internalType": "uint256",
          "name": "tokenId",
          "type": "uint256"
        },
        {
          "indexed": false,
          "internalType": "address",
          "name": "bidder",
          "type": "address"
        },
        {
          "indexed": false,
          "internalType": "uint256",
          "name": "price",
          "type": "uint256"
        },
        {
          "indexed": false,
          "internalType": "uint256",
          "name": "time",
          "type": "uint256"
        }
      ],
      "name": "logForfeit",
      "type": "event"
    },
    {
      "anonymous": false,
      "inputs": [
        {
          "indexed": true,
          "internalType": "address",
          "name": "orderId",
          "type": "address"
        },
        {
          "indexed": true,
          "internalType": "uint256",
          "name": "tokenId",
          "type": "uint256"
        },
        {
          "indexed": false,
          "internalType": "uint256",
          "name": "time",
          "type": "uint256"
        }
      ],
      "name": "logInvalid",
      "type": "event"
    },
    {
      "anonymous": false,
      "inputs": [
        {
          "indexed": true,
          "internalType": "address",
          "name": "orderId",
          "type": "address"
        },
        {
          "indexed": true,
          "internalType": "uint256",
          "name": "tokenId",
          "type": "uint256"
        },
        {
          "indexed": false,
          "internalType": "uint256",
          "name": "time",
          "type": "uint256"
        }
      ],
      "name": "logModify",
      "type": "event"
    },
    {
      "anonymous": false,
      "inputs": [
        {
          "indexed": true,
          "internalType": "address",
          "name": "orderId",
          "type": "address"
        },
        {
          "indexed": true,
          "internalType": "uint256",
          "name": "tokenId",
          "type": "uint256"
        },
        {
          "indexed": false,
          "internalType": "uint256",
          "name": "price",
          "type": "uint256"
        },
        {
          "indexed": false,
          "internalType": "uint256",
          "name": "time",
          "type": "uint256"
        }
      ],
      "name": "logOrder",
      "type": "event"
    },
    {
      "anonymous": false,
      "inputs": [
        {
          "indexed": true,
          "internalType": "address",
          "name": "orderId",
          "type": "address"
        },
        {
          "indexed": true,
          "internalType": "uint256",
          "name": "tokenId",
          "type": "uint256"
        },
        {
          "indexed": false,
          "internalType": "uint256",
          "name": "time",
          "type": "uint256"
        }
      ],
      "name": "logRemove",
      "type": "event"
    },
    {
      "inputs": [],
      "name": "buyerFees",
      "outputs": [
        {
          "internalType": "uint256",
          "name": "",
          "type": "uint256"
        }
      ],
      "stateMutability": "view",
      "type": "function"
    },
    {
      "inputs": [],
      "name": "operator",
      "outputs": [
        {
          "internalType": "address",
          "name": "",
          "type": "address"
        }
      ],
      "stateMutability": "view",
      "type": "function"
    },
    {
      "inputs": [],
      "name": "sellerFees",
      "outputs": [
        {
          "internalType": "uint256",
          "name": "",
          "type": "uint256"
        }
      ],
      "stateMutability": "view",
      "type": "function"
    },
    {
      "inputs": [],
      "name": "transferProxy",
      "outputs": [
        {
          "internalType": "contract TransferProxy",
          "name": "",
          "type": "address"
        }
      ],
      "stateMutability": "view",
      "type": "function"
    },
    {
      "inputs": [],
      "name": "treasury",
      "outputs": [
        {
          "internalType": "address payable",
          "name": "",
          "type": "address"
        }
      ],
      "stateMutability": "view",
      "type": "function"
    },
    {
      "inputs": [
        {
          "internalType": "address",
          "name": "orderId",
          "type": "address"
        },
        {
          "internalType": "address payable",
          "name": "owner",
          "type": "address"
        },
        {
          "internalType": "enum Auctions.TokenType",
          "name": "tokenType",
          "type": "uint8"
        },
        {
          "internalType": "address",
          "name": "collection",
          "type": "address"
        },
        {
          "internalType": "uint256",
          "name": "tokenId",
          "type": "uint256"
        },
        {
          "internalType": "uint256",
          "name": "price",
          "type": "uint256"
        },
        {
          "internalType": "uint256",
          "name": "reserve",
          "type": "uint256"
        },
        {
          "internalType": "uint256",
          "name": "fees",
          "type": "uint256"
        },
        {
          "internalType": "uint256",
          "name": "royalties",
          "type": "uint256"
        },
        {
          "internalType": "address payable",
          "name": "beneficiary",
          "type": "address"
        },
        {
          "internalType": "uint256",
          "name": "endtime",
          "type": "uint256"
        }
      ],
      "name": "newOrder",
      "outputs": [],
      "stateMutability": "nonpayable",
      "type": "function"
    },
    {
      "inputs": [
        {
          "internalType": "address",
          "name": "orderId",
          "type": "address"
        }
      ],
      "name": "getOrder",
      "outputs": [
        {
          "components": [
            {
              "internalType": "address",
              "name": "orderId",
              "type": "address"
            },
            {
              "internalType": "address payable",
              "name": "owner",
              "type": "address"
            },
            {
              "internalType": "enum Auctions.TokenType",
              "name": "tokenType",
              "type": "uint8"
            },
            {
              "internalType": "address",
              "name": "collection",
              "type": "address"
            },
            {
              "internalType": "uint256",
              "name": "tokenId",
              "type": "uint256"
            },
            {
              "internalType": "uint256",
              "name": "fees",
              "type": "uint256"
            },
            {
              "internalType": "uint256",
              "name": "royalties",
              "type": "uint256"
            },
            {
              "internalType": "address payable",
              "name": "beneficiary",
              "type": "address"
            },
            {
              "internalType": "uint256",
              "name": "price",
              "type": "uint256"
            },
            {
              "internalType": "uint256",
              "name": "reserve",
              "type": "uint256"
            },
            {
              "internalType": "uint256",
              "name": "lastbid",
              "type": "uint256"
            },
            {
              "internalType": "uint256",
              "name": "endtime",
              "type": "uint256"
            },
            {
              "internalType": "uint256",
              "name": "count",
              "type": "uint256"
            },
            {
              "internalType": "enum Auctions.OrderState",
              "name": "state",
              "type": "uint8"
            }
          ],
          "internalType": "struct Auctions.Order",
          "name": "",
          "type": "tuple"
        }
      ],
      "stateMutability": "view",
      "type": "function"
    },
    {
      "inputs": [
        {
          "internalType": "address",
          "name": "orderId",
          "type": "address"
        },
        {
          "internalType": "uint256",
          "name": "price",
          "type": "uint256"
        },
        {
          "internalType": "uint256",
          "name": "reserve",
          "type": "uint256"
        },
        {
          "internalType": "uint256",
          "name": "fees",
          "type": "uint256"
        },
        {
          "internalType": "uint256",
          "name": "royalties",
          "type": "uint256"
        },
        {
          "internalType": "address payable",
          "name": "beneficiary",
          "type": "address"
        },
        {
          "internalType": "uint256",
          "name": "endtime",
          "type": "uint256"
        }
      ],
      "name": "modifyOrder",
      "outputs": [],
      "stateMutability": "nonpayable",
      "type": "function"
    },
    {
      "inputs": [
        {
          "internalType": "address",
          "name": "orderId",
          "type": "address"
        }
      ],
      "name": "closeOrder",
      "outputs": [],
      "stateMutability": "nonpayable",
      "type": "function"
    },
    {
      "inputs": [
        {
          "internalType": "address",
          "name": "orderId",
          "type": "address"
        }
      ],
      "name": "cancelOrder",
      "outputs": [],
      "stateMutability": "nonpayable",
      "type": "function"
    },
    {
      "inputs": [
        {
          "internalType": "address",
          "name": "orderId",
          "type": "address"
        }
      ],
      "name": "invalidOrder",
      "outputs": [],
      "stateMutability": "nonpayable",
      "type": "function"
    },
    {
      "inputs": [
        {
          "internalType": "address",
          "name": "orderId",
          "type": "address"
        }
      ],
      "name": "removeOrder",
      "outputs": [],
      "stateMutability": "nonpayable",
      "type": "function"
    },
    {
      "inputs": [
        {
          "internalType": "address",
          "name": "orderId",
          "type": "address"
        },
        {
          "internalType": "uint8",
          "name": "index",
          "type": "uint8"
        }
      ],
      "name": "getBid",
      "outputs": [
        {
          "components": [
            {
              "internalType": "address",
              "name": "bidder",
              "type": "address"
            },
            {
              "internalType": "uint256",
              "name": "price",
              "type": "uint256"
            },
            {
              "internalType": "uint256",
              "name": "time",
              "type": "uint256"
            },
            {
              "internalType": "enum Auctions.BidState",
              "name": "state",
              "type": "uint8"
            }
          ],
          "internalType": "struct Auctions.Bid",
          "name": "",
          "type": "tuple"
        }
      ],
      "stateMutability": "view",
      "type": "function"
    },
    {
      "inputs": [
        {
          "internalType": "address",
          "name": "orderId",
          "type": "address"
        }
      ],
      "name": "getLastBid",
      "outputs": [
        {
          "components": [
            {
              "internalType": "address",
              "name": "bidder",
              "type": "address"
            },
            {
              "internalType": "uint256",
              "name": "price",
              "type": "uint256"
            },
            {
              "internalType": "uint256",
              "name": "time",
              "type": "uint256"
            },
            {
              "internalType": "enum Auctions.BidState",
              "name": "state",
              "type": "uint8"
            }
          ],
          "internalType": "struct Auctions.Bid",
          "name": "",
          "type": "tuple"
        }
      ],
      "stateMutability": "view",
      "type": "function"
    },
    {
      "inputs": [
        {
          "internalType": "address",
          "name": "orderId",
          "type": "address"
        }
      ],
      "name": "getLastValidBid",
      "outputs": [
        {
          "components": [
            {
              "internalType": "address",
              "name": "bidder",
              "type": "address"
            },
            {
              "internalType": "uint256",
              "name": "price",
              "type": "uint256"
            },
            {
              "internalType": "uint256",
              "name": "time",
              "type": "uint256"
            },
            {
              "internalType": "enum Auctions.BidState",
              "name": "state",
              "type": "uint8"
            }
          ],
          "internalType": "struct Auctions.Bid",
          "name": "",
          "type": "tuple"
        }
      ],
      "stateMutability": "view",
      "type": "function"
    },
    {
      "inputs": [
        {
          "internalType": "address",
          "name": "orderId",
          "type": "address"
        }
      ],
      "name": "getLastValidIndex",
      "outputs": [
        {
          "internalType": "uint256",
          "name": "",
          "type": "uint256"
        }
      ],
      "stateMutability": "view",
      "type": "function"
    },
    {
      "inputs": [
        {
          "internalType": "address",
          "name": "orderId",
          "type": "address"
        }
      ],
      "name": "getBids",
      "outputs": [
        {
          "components": [
            {
              "internalType": "address",
              "name": "bidder",
              "type": "address"
            },
            {
              "internalType": "uint256",
              "name": "price",
              "type": "uint256"
            },
            {
              "internalType": "uint256",
              "name": "time",
              "type": "uint256"
            },
            {
              "internalType": "enum Auctions.BidState",
              "name": "state",
              "type": "uint8"
            }
          ],
          "internalType": "struct Auctions.Bid[]",
          "name": "",
          "type": "tuple[]"
        }
      ],
      "stateMutability": "view",
      "type": "function"
    },
    {
      "inputs": [
        {
          "internalType": "address",
          "name": "orderId",
          "type": "address"
        },
        {
          "internalType": "uint256",
          "name": "price",
          "type": "uint256"
        }
      ],
      "name": "placeBid",
      "outputs": [],
      "stateMutability": "nonpayable",
      "type": "function"
    },
    {
      "inputs": [
        {
          "internalType": "address",
          "name": "orderId",
          "type": "address"
        },
        {
          "internalType": "uint256",
          "name": "index",
          "type": "uint256"
        }
      ],
      "name": "forfeit",
      "outputs": [],
      "stateMutability": "nonpayable",
      "type": "function"
    },
    {
      "inputs": [
        {
          "internalType": "address",
          "name": "orderId",
          "type": "address"
        }
      ],
      "name": "claim",
      "outputs": [],
      "stateMutability": "payable",
      "type": "function"
    },
    {
      "inputs": [],
      "name": "getOperator",
      "outputs": [
        {
          "internalType": "address",
          "name": "",
          "type": "address"
        }
      ],
      "stateMutability": "view",
      "type": "function"
    },
    {
      "inputs": [
        {
          "internalType": "address payable",
          "name": "any",
          "type": "address"
        }
      ],
      "name": "setOperator",
      "outputs": [],
      "stateMutability": "nonpayable",
      "type": "function"
    },
    {
      "inputs": [],
      "name": "getTreasury",
      "outputs": [
        {
          "internalType": "address",
          "name": "",
          "type": "address"
        }
      ],
      "stateMutability": "view",
      "type": "function"
    },
    {
      "inputs": [
        {
          "internalType": "address payable",
          "name": "any",
          "type": "address"
        }
      ],
      "name": "setTreasury",
      "outputs": [],
      "stateMutability": "nonpayable",
      "type": "function"
    },
    {
      "inputs": [],
      "name": "getSellerFees",
      "outputs": [
        {
          "internalType": "uint256",
          "name": "",
          "type": "uint256"
        }
      ],
      "stateMutability": "view",
      "type": "function"
    },
    {
      "inputs": [
        {
          "internalType": "uint256",
          "name": "fee",
          "type": "uint256"
        }
      ],
      "name": "setSellerFees",
      "outputs": [],
      "stateMutability": "nonpayable",
      "type": "function"
    },
    {
      "inputs": [],
      "name": "getBuyerFees",
      "outputs": [
        {
          "internalType": "uint256",
          "name": "",
          "type": "uint256"
        }
      ],
      "stateMutability": "view",
      "type": "function"
    },
    {
      "inputs": [
        {
          "internalType": "uint256",
          "name": "fee",
          "type": "uint256"
        }
      ],
      "name": "setBuyerFees",
      "outputs": [],
      "stateMutability": "nonpayable",
      "type": "function"
    },
    {
      "inputs": [],
      "name": "getTransferProxy",
      "outputs": [
        {
          "internalType": "address",
          "name": "",
          "type": "address"
        }
      ],
      "stateMutability": "view",
      "type": "function"
    },
    {
      "inputs": [
        {
          "internalType": "contract TransferProxy",
          "name": "proxy",
          "type": "address"
        }
      ],
      "name": "setTransferProxy",
      "outputs": [],
      "stateMutability": "nonpayable",
      "type": "function"
    },
    {
      "inputs": [],
      "name": "gulp",
      "outputs": [],
      "stateMutability": "nonpayable",
      "type": "function"
    }
  ],
  "bytecode": "0x608060405234801561001057600080fd5b5060008054336001600160a01b031991821681178355600180549092161790556002808055600355612a7490819061004890396000f3fe6080604052600436106101d85760003560e01c80638ae4290511610102578063b1f2f99c11610095578063d98b9bb511610064578063d98b9bb514610519578063e7f43c6814610539578063f0f442601461054e578063f9bf80061461056e576101d8565b8063b1f2f99c146104af578063b3ab15fb146104c4578063b7a7d0dd146104e4578063cce354b5146104f9576101d8565b80639dccae82116100d15780639dccae821461042d578063a62f80351461045a578063aeea2c601461047a578063afa19bea1461048f576101d8565b80638ae42905146103b857806390e72127146103d857806394909e62146103f857806399c498521461040d576101d8565b8063570ca7351161017a5780636e667db3116101495780636e667db3146103365780636eba2b131461034b5780637545335b1461037857806383dbb27b14610398576101d8565b8063570ca735146102d757806359ab0f05146102ec57806361d027b3146103015780636e14afcc14610316576101d8565b80633b19e84a116101b65780633b19e84a146102485780633bc54ed41461026a5780633ebf489a1461028a5780634bf0baf9146102b7576101d8565b80631e83409a146101dd5780632dd36f03146101f25780632e65742114610228575b600080fd5b6101f06101eb36600461215a565b610583565b005b3480156101fe57600080fd5b5061021261020d3660046122b6565b610a73565b60405161021f91906128fc565b60405180910390f35b34801561023457600080fd5b506101f061024336600461224e565b610bc5565b34801561025457600080fd5b5061025d610d04565b60405161021f919061236b565b34801561027657600080fd5b506101f061028536600461215a565b610d13565b34801561029657600080fd5b506102aa6102a536600461215a565b610eb4565b60405161021f91906129da565b3480156102c357600080fd5b506102126102d236600461215a565b61100e565b3480156102e357600080fd5b5061025d61113c565b3480156102f857600080fd5b506102aa61114b565b34801561030d57600080fd5b5061025d611151565b34801561032257600080fd5b506101f06103313660046122f3565b611160565b34801561034257600080fd5b5061025d61118f565b34801561035757600080fd5b5061036b61036636600461215a565b61119e565b60405161021f919061290a565b34801561038457600080fd5b506101f06103933660046122f3565b6112ad565b3480156103a457600080fd5b506101f06103b336600461215a565b6112dc565b3480156103c457600080fd5b506101f06103d336600461215a565b6113e5565b3480156103e457600080fd5b506101f06103f336600461215a565b611431565b34801561040457600080fd5b506101f0611521565b34801561041957600080fd5b506101f061042836600461215a565b6115dd565b34801561043957600080fd5b5061044d61044836600461215a565b6116ce565b60405161021f91906123ce565b34801561046657600080fd5b5061021261047536600461215a565b6117b5565b34801561048657600080fd5b506102aa611955565b34801561049b57600080fd5b506101f06104aa366004612176565b61195b565b3480156104bb57600080fd5b506102aa611b30565b3480156104d057600080fd5b506101f06104df36600461215a565b611b36565b3480156104f057600080fd5b506102aa611b82565b34801561050557600080fd5b506101f0610514366004612223565b611b88565b34801561052557600080fd5b506101f0610534366004612223565b611d18565b34801561054557600080fd5b5061025d611f77565b34801561055a57600080fd5b506101f061056936600461215a565b611f86565b34801561057a57600080fd5b5061025d611fd2565b600454600160a01b900460ff16156105b65760405162461bcd60e51b81526004016105ad9061288e565b60405180910390fd5b6004805460ff60a01b1916600160a01b1790556001600160a01b03808216600090815260056020526040902080549091166106035760405162461bcd60e51b81526004016105ad906124f8565b6006600c82015460ff16600681111561061857fe5b14156106365760405162461bcd60e51b81526004016105ad9061259d565b6005600c82015460ff16600681111561064b57fe5b146106685760405162461bcd60e51b81526004016105ad90612642565b600061067383610eb4565b9050600081116106955760405162461bcd60e51b81526004016105ad906127b2565b6001600160a01b0383166000908152600660205260408120805460001984019081106106bd57fe5b600091825260209091206004909102018054600185015491925033916001600160a01b039182169116816107035760405162461bcd60e51b81526004016105ad9061277b565b816001600160a01b0316836001600160a01b0316146107345760405162461bcd60e51b81526004016105ad9061241c565b85600801548460010154101561075c5760405162461bcd60e51b81526004016105ad906126b0565b8360010154341461077f5760405162461bcd60e51b81526004016105ad90612820565b6001840154600254600090156107bc576107b96107b260646107ac60025486611fe190919063ffffffff16565b90612022565b8290612054565b90505b600354156107e4576107e16107b260646107ac60035486611fe190919063ffffffff16565b90505b8015610826576001546040516001600160a01b039091169082156108fc029083906000818181858888f19350505050158015610824573d6000803e3d6000fd5b505b6000808960050154118015610847575060068901546001600160a01b031615155b156108ae5761086860646107ac8b6005015486611fe190919063ffffffff16565b905080156108ae5760068901546040516001600160a01b039091169082156108fc029083906000818181858888f193505050501580156108ac573d6000803e3d6000fd5b505b60006108c4826108be8686612079565b90612079565b90508015610904576040516001600160a01b0386169082156108fc029083906000818181858888f19350505050158015610902573d6000803e3d6000fd5b505b60045460018b8101546001600160a01b0390921691639277e3f691600160a01b90910460ff169081111561093457fe5b8c60020160009054906101000a90046001600160a01b03168d60010160009054906101000a90046001600160a01b03168a8f6003015460016040518763ffffffff1660e01b815260040161098d969594939291906129e3565b600060405180830381600087803b1580156109a757600080fd5b505af11580156109bb573d6000803e3d6000fd5b505050506003888101805460ff19166001830217905550600c8a0180546006919060ff1916600183021790555089600301548b6001600160a01b03167f451023c6b450cae3562f85a1ef1b8c9c9cc20db8c0addb7cdbb65ddf471c92008a60000160009054906101000a90046001600160a01b03168d600701548e600401548f6005015442604051610a519594939291906123a0565b60405180910390a350506004805460ff60a01b19169055505050505050505050565b610a7b6120a1565b6001600160a01b038316610aa15760405162461bcd60e51b81526004016105ad906127e9565b6001600160a01b0383166000908152600660209081526040808320805482518185028101850190935280835260609492939192909184015b82821015610b5a576000848152602090819020604080516080810182526004860290920180546001600160a01b03168352600181015493830193909352600283015490820152600380830154919291606084019160ff90911690811115610b3c57fe5b6003811115610b4757fe5b8152505081526020019060010190610ad9565b5050505090506000815111610b815760405162461bcd60e51b81526004016105ad9061248a565b80518360ff1610610ba45760405162461bcd60e51b81526004016105ad906126e7565b808360ff1681518110610bb357fe5b60200260200101519150505b92915050565b6000546001600160a01b03163314610bef5760405162461bcd60e51b81526004016105ad9061260b565b600454600160a01b900460ff1615610c195760405162461bcd60e51b81526004016105ad9061288e565b6004805460ff60a01b1916600160a01b1790556001600160a01b0380881660009081526005602052604090208054909116610c665760405162461bcd60e51b81526004016105ad906124f8565b6007810187905560088101869055600a810182905560048101859055600581018490556006810180546001600160a01b0319166001600160a01b0385811691909117909155600382015460405190918a16907fb92c8be56143083330c9fa07a8217581f8c849af58ad9d8cc0c6fabf6bbff8b590610ce59042906129da565b60405180910390a350506004805460ff60a01b19169055505050505050565b6001546001600160a01b031690565b6000546001600160a01b03163314610d3d5760405162461bcd60e51b81526004016105ad9061260b565b600454600160a01b900460ff1615610d675760405162461bcd60e51b81526004016105ad9061288e565b6004805460ff60a01b1916600160a01b1790556001600160a01b0380821660009081526005602052604090208054909116610db45760405162461bcd60e51b81526004016105ad906124f8565b6003808201546001600160a01b038416600081815260056020819052604080832080546001600160a01b031990811682556001820180547fffffffffffffffffffffff0000000000000000000000000000000000000000001690556002820180548216905596810184905560048101849055918201839055600682018054909616909555600781018290556008810182905560098101829055600a8101829055600b810191909155600c01805460ff191690559151909182917f81e8bb38b70ad20898a9ac323d522d527b571572164bddc1accfef8a77cdec9590610e9a9042906129da565b60405180910390a350506004805460ff60a01b1916905550565b60006001600160a01b038216610edc5760405162461bcd60e51b81526004016105ad906127e9565b6001600160a01b0382166000908152600660209081526040808320805482518185028101850190935280835260609492939192909184015b82821015610f95576000848152602090819020604080516080810182526004860290920180546001600160a01b03168352600181015493830193909352600283015490820152600380830154919291606084019160ff90911690811115610f7757fe5b6003811115610f8257fe5b8152505081526020019060010190610f14565b5050505090506000815111610fbc5760405162461bcd60e51b81526004016105ad9061248a565b80515b8015611005576001826001830381518110610fd657fe5b6020026020010151606001516003811115610fed57fe5b1415610ffc5791506110099050565b60001901610fbf565b9150505b919050565b6110166120a1565b6001600160a01b03821661103c5760405162461bcd60e51b81526004016105ad906127e9565b6001600160a01b0382166000908152600660209081526040808320805482518185028101850190935280835260609492939192909184015b828210156110f5576000848152602090819020604080516080810182526004860290920180546001600160a01b03168352600181015493830193909352600283015490820152600380830154919291606084019160ff909116908111156110d757fe5b60038111156110e257fe5b8152505081526020019060010190611074565b505050509050600081511161111c5760405162461bcd60e51b81526004016105ad9061248a565b8060018251038151811061112c57fe5b6020026020010151915050919050565b6000546001600160a01b031681565b60025481565b6001546001600160a01b031681565b6000546001600160a01b0316331461118a5760405162461bcd60e51b81526004016105ad9061260b565b600255565b6004546001600160a01b031681565b6111a66120c9565b6001600160a01b0382811660009081526005602090815260409182902082516101c08101845281548516815260018083015495861693820193909352939092840191600160a01b90910460ff16908111156111fd57fe5b600181111561120857fe5b815260028201546001600160a01b03908116602083015260038301546040830152600483015460608301526005830154608083015260068084015490911660a0830152600783015460c0830152600883015460e08301526009830154610100830152600a830154610120830152600b830154610140830152600c8301546101609092019160ff169081111561129957fe5b60068111156112a457fe5b90525092915050565b6000546001600160a01b031633146112d75760405162461bcd60e51b81526004016105ad9061260b565b600355565b6000546001600160a01b031633146113065760405162461bcd60e51b81526004016105ad9061260b565b600454600160a01b900460ff16156113305760405162461bcd60e51b81526004016105ad9061288e565b6004805460ff60a01b1916600160a01b1790556001600160a01b038082166000908152600560205260409020805490911661137d5760405162461bcd60e51b81526004016105ad906124f8565b600c8101805460ff1916600417905560038101546040516001600160a01b038416907f9cc610ead59f78dca74d7c4ce66e55dc0f15bf05f7ca6b7139f1b132fedc815c906113cc9042906129da565b60405180910390a350506004805460ff60a01b19169055565b6000546001600160a01b0316331461140f5760405162461bcd60e51b81526004016105ad9061260b565b600480546001600160a01b0319166001600160a01b0392909216919091179055565b6000546001600160a01b0316331461145b5760405162461bcd60e51b81526004016105ad9061260b565b600454600160a01b900460ff16156114855760405162461bcd60e51b81526004016105ad9061288e565b6004805460ff60a01b1916600160a01b1790556001600160a01b03808216600090815260056020526040902080549091166114d25760405162461bcd60e51b81526004016105ad906124f8565b600c8101805460ff1916600517905560038101546040516001600160a01b038416907f8db5a6739138991e73a7e67e075dd8528db21837454e3fda538abf9a404b5f44906113cc9042906129da565b6000546001600160a01b0316331461154b5760405162461bcd60e51b81526004016105ad9061260b565b600454600160a01b900460ff16156115755760405162461bcd60e51b81526004016105ad9061288e565b6004805460ff60a01b1916600160a01b179055308031156115cd576001546040516001600160a01b039182169183163180156108fc02916000818181858888f193505050501580156115cb573d6000803e3d6000fd5b505b506004805460ff60a01b19169055565b6000546001600160a01b031633146116075760405162461bcd60e51b81526004016105ad9061260b565b600454600160a01b900460ff16156116315760405162461bcd60e51b81526004016105ad9061288e565b6004805460ff60a01b1916600160a01b1790556001600160a01b038082166000908152600560205260409020805490911661167e5760405162461bcd60e51b81526004016105ad906124f8565b600c8101805460ff191660039081179091558101546040516001600160a01b038416907f718434637262042681296d2719a0d9745fa365a0835c58a1b3116f8ccba162ed906113cc9042906129da565b60606001600160a01b0382166116f65760405162461bcd60e51b81526004016105ad906127e9565b6001600160a01b038216600090815260066020908152604080832080548251818502810185019093528083529193909284015b828210156117aa576000848152602090819020604080516080810182526004860290920180546001600160a01b03168352600181015493830193909352600283015490820152600380830154919291606084019160ff9091169081111561178c57fe5b600381111561179757fe5b8152505081526020019060010190611729565b505050509050919050565b6117bd6120a1565b6001600160a01b0382166117e35760405162461bcd60e51b81526004016105ad906127e9565b6001600160a01b0382166000908152600660209081526040808320805482518185028101850190935280835260609492939192909184015b8282101561189c576000848152602090819020604080516080810182526004860290920180546001600160a01b03168352600181015493830193909352600283015490820152600380830154919291606084019160ff9091169081111561187e57fe5b600381111561188957fe5b815250508152602001906001019061181b565b50505050905060008151116118c35760405162461bcd60e51b81526004016105ad9061248a565b8051600019015b60018282815181106118d857fe5b60200260200101516060015160038111156118ef57fe5b14156119125781818151811061190157fe5b602002602001015192505050611009565b80156119215760001901611926565b61192b565b6118ca565b60408051608081018252600080825260208201819052918101829052906060820152949350505050565b60035481565b6000546001600160a01b031633146119855760405162461bcd60e51b81526004016105ad9061260b565b600454600160a01b900460ff16156119af5760405162461bcd60e51b81526004016105ad9061288e565b6004805460ff60a01b1916600160a01b1790556001600160a01b038b811660009081526005602052604090205416156119fa5760405162461bcd60e51b81526004016105ad906128c5565b6001600160a01b038b8116600081815260056020526040902080546001600160a01b0319908116909217815560018082018054909316938e169390931780835590928c929160ff60a01b191690600160a01b908490811115611a5857fe5b02179055506002810180546001600160a01b038b81166001600160a01b031992831617909255600383018a9055600483018790556005830186905560068301805486841692169190911790556007820188905560088201879055600a8201839055600060098301819055600b830155600c8201805460ff1916600117905560405189918e16907f8d90a3c3ed8b8f0c46e5d320780dfa85a5a760090a2fe81713205451a8254bd790611b0d908b904290612a18565b60405180910390a350506004805460ff60a01b1916905550505050505050505050565b60025490565b6000546001600160a01b03163314611b605760405162461bcd60e51b81526004016105ad9061260b565b600080546001600160a01b0319166001600160a01b0392909216919091179055565b60035490565b6000546001600160a01b03163314611bb25760405162461bcd60e51b81526004016105ad9061260b565b600454600160a01b900460ff1615611bdc5760405162461bcd60e51b81526004016105ad9061288e565b6004805460ff60a01b1916600160a01b1790556001600160a01b0380831660009081526005602052604090208054909116611c295760405162461bcd60e51b81526004016105ad906124f8565b6001600160a01b03831660009081526006602052604090208054611c5f5760405162461bcd60e51b81526004016105ad9061248a565b80548310611c7f5760405162461bcd60e51b81526004016105ad906126e7565b6000818481548110611c8d57fe5b600091825260209091206003600490920201818101805460ff19166002179055908401548154600786015460405193945091926001600160a01b03898116937f66672f916b0acdb0628eda9071a6ba0cc233619267bc9f7364d7a914bed6592693611cfc93921691429061237f565b60405180910390a350506004805460ff60a01b19169055505050565b6001600160a01b038216611d3e5760405162461bcd60e51b81526004016105ad906127e9565b60008111611d5e5760405162461bcd60e51b81526004016105ad90612453565b6001600160a01b0380831660009081526005602052604090208054909116611d985760405162461bcd60e51b81526004016105ad906124f8565b6001818101546003830154600c8401546001600160a01b0390921692339260ff166006811115611dc457fe5b14611de15760405162461bcd60e51b81526004016105ad90612857565b336001600160a01b0384161415611e0a5760405162461bcd60e51b81526004016105ad90612679565b83600901548511611e2d5760405162461bcd60e51b81526004016105ad906125d4565b83600a0154421115611e4f57505050600c01805460ff19166005179055611f73565b611e576120a1565b6040518060800160405280846001600160a01b0316815260200187815260200142815260200160016003811115611e8a57fe5b90526001600160a01b03888116600090815260066020908152604080832080546001808201835591855293839020865160049095020180546001600160a01b031916949095169390931784559084015183830155830151600283015560608301516003808401805495965086959293909260ff1916918490811115611f0b57fe5b0217905550505060098501869055600b85018054600101905560405182906001600160a01b038916907f5c2b30b69878d1af2170dc75703de7e57d884d9a187d4aad26b10701f3236d1d90611f659087908b90429061237f565b60405180910390a350505050505b5050565b6000546001600160a01b031690565b6000546001600160a01b03163314611fb05760405162461bcd60e51b81526004016105ad9061260b565b600180546001600160a01b0319166001600160a01b0392909216919091179055565b6004546001600160a01b031690565b600082611ff057506000610bbf565b82820282848281611ffd57fe5b041461201b5760405162461bcd60e51b81526004016105ad9061271e565b9392505050565b60008082116120435760405162461bcd60e51b81526004016105ad90612566565b81838161204c57fe5b049392505050565b60008282018381101561201b5760405162461bcd60e51b81526004016105ad906124c1565b60008282111561209b5760405162461bcd60e51b81526004016105ad9061252f565b50900390565b604080516080810182526000808252602082018190529181018290529060608201905b905290565b604080516101c0810182526000808252602082018190529091820190815260200160006001600160a01b0316815260200160008152602001600081526020016000815260200160006001600160a01b031681526020016000815260200160008152602001600081526020016000815260200160008152602001600060068111156120c457fe5b8035610bbf81612a26565b60006020828403121561216b578081fd5b813561201b81612a26565b60008060008060008060008060008060006101608c8e031215612197578687fd5b8b356121a281612a26565b9a5060208c01356121b281612a26565b995060408c0135600281106121c5578788fd5b985060608c01356121d581612a26565b975060808c0135965060a08c0135955060c08c0135945060e08c013593506101008c013592506122098d6101208e0161214f565b91506101408c013590509295989b509295989b9093969950565b60008060408385031215612235578182fd5b823561224081612a26565b946020939093013593505050565b600080600080600080600060e0888a031215612268578283fd5b873561227381612a26565b96506020880135955060408801359450606088013593506080880135925060a088013561229f81612a26565b8092505060c0880135905092959891949750929550565b600080604083850312156122c8578182fd5b82356122d381612a26565b9150602083013560ff811681146122e8578182fd5b809150509250929050565b600060208284031215612304578081fd5b5035919050565b6001600160a01b03169052565b6007811061232257fe5b9052565b6002811061232257fe5b6001600160a01b038151168252602081015160208301526040810151604083015260608101516004811061236057fe5b806060840152505050565b6001600160a01b0391909116815260200190565b6001600160a01b039390931683526020830191909152604082015260600190565b6001600160a01b03959095168552602085019390935260408401919091526060830152608082015260a00190565b6020808252825182820181905260009190848201906040850190845b81811015612410576123fd838551612330565b92840192608092909201916001016123ea565b50909695505050505050565b60208082526011908201527f4552525f555345524e4f5457494e4e4552000000000000000000000000000000604082015260600190565b60208082526010908201527f4552525f494e56414c4944505249434500000000000000000000000000000000604082015260600190565b6020808252600a908201527f4552525f4e4f4249445300000000000000000000000000000000000000000000604082015260600190565b6020808252601b908201527f536166654d6174683a206164646974696f6e206f766572666c6f770000000000604082015260600190565b60208082526011908201527f4552525f4f524445524e4f54464f554e44000000000000000000000000000000604082015260600190565b6020808252601e908201527f536166654d6174683a207375627472616374696f6e206f766572666c6f770000604082015260600190565b6020808252601a908201527f536166654d6174683a206469766973696f6e206279207a65726f000000000000604082015260600190565b6020808252600f908201527f4552525f414c5245414459504149440000000000000000000000000000000000604082015260600190565b6020808252600c908201527f4552525f554e4445524249440000000000000000000000000000000000000000604082015260600190565b60208082526010908201527f4552525f554e415554484f52495a454400000000000000000000000000000000604082015260600190565b60208082526010908201527f4552525f4d5553544245434c4f53454400000000000000000000000000000000604082015260600190565b60208082526011908201527f4552525f53454c4c455243414e54424944000000000000000000000000000000604082015260600190565b60208082526010908201527f4552525f554e4445525245534552564500000000000000000000000000000000604082015260600190565b6020808252600f908201527f4552525f4f55544f46424f554e44530000000000000000000000000000000000604082015260600190565b60208082526021908201527f536166654d6174683a206d756c7469706c69636174696f6e206f766572666c6f60408201527f7700000000000000000000000000000000000000000000000000000000000000606082015260800190565b6020808252600f908201527f4552525f4249444e4f54464f554e440000000000000000000000000000000000604082015260600190565b6020808252600f908201527f4552525f494e56414c4944424944530000000000000000000000000000000000604082015260600190565b60208082526012908201527f4552525f494e56414c49444f5244455249440000000000000000000000000000604082015260600190565b60208082526011908201527f4552525f494e56414c4944414d4f554e54000000000000000000000000000000604082015260600190565b60208082526010908201527f4552525f4f524445524e4f544f50454e00000000000000000000000000000000604082015260600190565b60208082526012908201527f4552525f494e56414c49445245454e5452590000000000000000000000000000604082015260600190565b6020808252600f908201527f4552525f4f524445524558495354530000000000000000000000000000000000604082015260600190565b60808101610bbf8284612330565b60006101c08201905061291e82845161230b565b6020830151612930602084018261230b565b5060408301516129436040840182612326565b506060830151612956606084018261230b565b506080830151608083015260a083015160a083015260c083015160c083015260e083015161298760e084018261230b565b50610100838101519083015261012080840151908301526101408084015190830152610160808401519083015261018080840151908301526101a0808401516129d282850182612318565b505092915050565b90815260200190565b9586526001600160a01b039485166020870152928416604086015292166060840152608083019190915260a082015260c00190565b918252602082015260400190565b6001600160a01b0381168114612a3b57600080fd5b5056fea2646970667358221220f5cd3c0d20c8cbfe4821f49828d68da1685a37c229f42923aece062031627a3d64736f6c634300060c0033",
  "immutableReferences": {},
  "source": "// 2021.04.22\n\npragma solidity ^0.6.12;\npragma experimental ABIEncoderV2;\n\nimport '../exchange/TransferProxy.sol';\nimport '../lib/contracts/ERC721.sol';\nimport '../lib/contracts/ERC1155.sol';\n\n\ncontract Auctions {\n    using SafeMath for uint;\n\n    event logBid(address indexed orderId, uint indexed tokenId, address bidder, uint price, uint time);\n    event logCancel(address indexed orderId, uint indexed tokenId, uint time);\n    event logClaim(address indexed orderId, uint indexed tokenId, address buyer, uint price, uint fees, uint royalties, uint time);\n    event logClose(address indexed orderId, uint indexed tokenId, uint time);\n    event logForfeit(address indexed orderId, uint indexed tokenId, address bidder, uint price, uint time);\n    event logInvalid(address indexed orderId, uint indexed tokenId, uint time);\n    event logModify(address indexed orderId, uint indexed tokenId, uint time);\n    event logOrder(address indexed orderId, uint indexed tokenId, uint price, uint time);\n    event logRemove(address indexed orderId, uint indexed tokenId, uint time);\n\n    address         public  operator;  // Auction operator\n    address payable public  treasury;  // Fee collector\n    uint            public  sellerFees;\n    uint            public  buyerFees;\n    TransferProxy   public  transferProxy;\n\n    enum TokenType  {ERC721, ERC1155}\n    enum OrderState {DRAFT, OPEN, PAUSED, CANCELLED, INVALID, CLOSED, PAID}\n    enum BidState   {INVALID, VALID, FORFEIT, PAID}\n\n\n    struct Bid {\n        address         bidder;\n        uint            price;\n        uint            time;\n        BidState        state;       // invalid, valid, forfeit, paid\n    }\n\n    struct Order {\n        address         orderId;\n        address payable owner;\n        TokenType       tokenType;\n        address         collection;\n        uint            tokenId;\n        uint            fees;\n        uint            royalties;\n        address payable beneficiary;\n        uint            price;       // starting price\n        uint            reserve;     // reserve price\n        uint            lastbid;     // last price\n        uint            endtime;     // epoch\n        uint            count;       // bid counter     \n        OrderState      state;       // draft, open, paused, cancelled, invalid, closed, paid\n    }\n\n    bool private _mutex; // reentry check\n    mapping(address => Order) internal orders;     // orders by orderid\n    mapping(address => Bid[]) internal orderBids;  // bids by orderid\n\n    modifier _lock_() {\n        require(!_mutex, \"ERR_INVALIDREENTRY\");\n        _mutex = true;\n        _;\n        _mutex = false;\n    }\n\n    modifier _viewlock_() {\n        require(!_mutex, \"ERR_INVALIDREENTRY\");\n        _;\n    }\n\n    modifier authorized() {\n        require(msg.sender==operator, 'ERR_UNAUTHORIZED');\n        _;\n    }\n\n    constructor() public {\n        address payable caller = payable(msg.sender);\n        operator   = caller;\n        treasury   = caller;\n        sellerFees = 2;\n        buyerFees  = 2;\n    }\n\n\n    //---- ORDERS\n\n    function newOrder(address orderId, address payable owner, TokenType tokenType, address collection, uint tokenId, uint price, uint reserve, uint fees, uint royalties, address payable beneficiary, uint endtime) external authorized _lock_ {\n        require(orders[orderId].orderId==address(0x0), 'ERR_ORDEREXISTS');\n        Order storage order = orders[orderId];\n        order.orderId     = orderId;\n        order.owner       = owner;\n        order.tokenType   = tokenType;\n        order.collection  = collection;\n        order.tokenId     = tokenId;\n        order.fees        = fees;\n        order.royalties   = royalties;\n        order.beneficiary = beneficiary;\n        order.price       = price;\n        order.reserve     = reserve;\n        order.endtime     = endtime;\n        order.lastbid     = 0;\n        order.count       = 0;\n        order.state       = OrderState.OPEN;\n        emit logOrder(orderId, tokenId, price, block.timestamp);\n    }\n\n    function getOrder(address orderId) external view returns (Order memory) {\n        return orders[orderId];\n    }\n\n    function modifyOrder(address orderId, uint price, uint reserve, uint fees, uint royalties, address payable beneficiary, uint endtime) external authorized _lock_ {\n        Order storage order = orders[orderId];\n        require(order.orderId!=address(0x0), 'ERR_ORDERNOTFOUND');\n        order.price       = price;\n        order.reserve     = reserve;\n        order.endtime     = endtime;\n        order.fees        = fees;\n        order.royalties   = royalties;\n        order.beneficiary = beneficiary;\n        emit logModify(orderId, order.tokenId, block.timestamp);\n    }\n\n    function closeOrder(address orderId) public authorized _lock_ {\n        Order storage order = orders[orderId];\n        require(order.orderId!=address(0x0), 'ERR_ORDERNOTFOUND');\n        order.state = OrderState.CLOSED;\n        emit logClose(orderId, order.tokenId, block.timestamp);\n    }\n\n    function cancelOrder(address orderId) public authorized _lock_ {\n        Order storage order = orders[orderId];\n        require(order.orderId!=address(0x0), 'ERR_ORDERNOTFOUND');\n        order.state = OrderState.CANCELLED;\n        emit logCancel(orderId, order.tokenId, block.timestamp);\n    }\n    \n    // Invalidate if winner didn't claim and bidders didn't match reserve price\n    function invalidOrder(address orderId) public authorized _lock_ {\n        Order storage order = orders[orderId];\n        require(order.orderId!=address(0x0), 'ERR_ORDERNOTFOUND');\n        order.state = OrderState.INVALID;\n        emit logInvalid(orderId, order.tokenId, block.timestamp);\n    }\n    \n    function removeOrder(address orderId) public authorized _lock_ {\n        Order storage order = orders[orderId];\n        require(order.orderId!=address(0x0), 'ERR_ORDERNOTFOUND');\n        uint tokenId = order.tokenId;\n        delete orders[orderId];\n        // TODO: remove bids?\n        emit logRemove(orderId, tokenId, block.timestamp);\n    }\n\n\n    //---- BIDS\n\n    // Money won't get collected until after auction ends\n    // If buyer doesn't claim in time, bid will be forfeited and next bidder will be able to claim up to reserve price\n    // Modifications only allowed before first bid\n    // Cancellations allowed any time\n\n    function getBid(address orderId, uint8 index) external view returns (Bid memory) {\n        require(orderId != address(0), \"ERR_INVALIDORDERID\");\n        Bid[] memory bids = orderBids[orderId];\n        require(bids.length > 0, 'ERR_NOBIDS');\n        require(index < bids.length, 'ERR_OUTOFBOUNDS');\n        return bids[index];\n    }\n\n    function getLastBid(address orderId) external view returns (Bid memory) {\n        require(orderId != address(0), \"ERR_INVALIDORDERID\");\n        Bid[] memory bids = orderBids[orderId];\n        require(bids.length > 0, 'ERR_NOBIDS');\n        return bids[bids.length-1];\n    }\n\n    function getLastValidBid(address orderId) public view returns (Bid memory) {\n        require(orderId != address(0), \"ERR_INVALIDORDERID\");\n        Bid[] memory bids  = orderBids[orderId];\n        require(bids.length > 0, 'ERR_NOBIDS');\n        uint index = bids.length-1;\n        while (index>=0){\n            if(bids[index].state==BidState.VALID){ return bids[index]; }\n            if(index>0){ index--; } else { break; }\n        }\n        return Bid(address(0),0,0,BidState.INVALID);\n    }\n\n    function getLastValidIndex(address orderId) public view returns (uint) {\n        require(orderId != address(0), \"ERR_INVALIDORDERID\");\n        Bid[] memory bids  = orderBids[orderId];\n        require(bids.length > 0, 'ERR_NOBIDS');\n        uint index = bids.length; // Unfortunately uints can't go below zero so we won't know if no valid bids so lets count from max instead of max-1 and use 0 as no valid bids\n        while (index>0){\n            if(bids[index-1].state==BidState.VALID){ return index; }\n            index--;\n        }\n        return index; // check index-1 for correct index, 0 for not found\n    }\n\n    function getBids(address orderId) external view returns (Bid[] memory) {\n        require(orderId != address(0), \"ERR_INVALIDORDERID\");\n        return orderBids[orderId];\n    }\n\n    // Anybody can bid, but this contract has to be approved by the token seller\n    // Buyer sends money to this contract then fees and royalties are deducted from payment\n    // Money is then transferred to treasury, beneficiary and seller\n    // Token is transferred from seller to buyer\n    function placeBid(address orderId, uint price) external {\n        require(orderId != address(0), \"ERR_INVALIDORDERID\");\n        require(price > 0, 'ERR_INVALIDPRICE');\n\n        // Verify order exists\n        Order storage order = orders[orderId];\n        require(order.orderId != address(0), 'ERR_ORDERNOTFOUND');\n\n        address seller = address(order.owner);\n        address bidder = address(msg.sender);\n        uint tokenId   = order.tokenId;\n\n        require(order.state == OrderState.OPEN, 'ERR_ORDERNOTOPEN'); // Verify token is for sale\n        require(msg.sender != seller, 'ERR_SELLERCANTBID');          // Seller can not bid\n        require(price > order.lastbid, 'ERR_UNDERBID');  // Verify price is greater than latest bid\n\n        // Set status closed if reached end block and reject bid\n        if(block.timestamp > order.endtime) {\n            order.state = OrderState.CLOSED;\n            return;\n        }\n\n        // Save bid\n        Bid memory bid = Bid(bidder, price, block.timestamp, BidState.VALID);\n        orderBids[orderId].push(bid);\n\n        // Update order\n        order.lastbid = price;\n        order.count = order.count + 1;\n\n        emit logBid(orderId, tokenId, bidder, price, block.timestamp);\n    }\n\n    // If buyer doesn't pay, forfeit and get next bidder up to reserve price else declare auction invalid\n    function forfeit(address orderId, uint index) public authorized _lock_ {\n        Order storage order = orders[orderId];\n        require(order.orderId!=address(0x0), 'ERR_ORDERNOTFOUND');\n        Bid[] storage bids = orderBids[orderId];\n        require(bids.length > 0, 'ERR_NOBIDS');           // Verify bids exist\n        require(index < bids.length, 'ERR_OUTOFBOUNDS');  // Verify bid[index] in bounds\n        Bid storage bid = bids[index];\n        //orderBids[orderId][index].state = BidState.FORFEIT;\n        bid.state = BidState.FORFEIT;\n        emit logForfeit(orderId, order.tokenId, bid.bidder, order.price, block.timestamp);\n    }\n    \n    // Winner must pay highest bid amount to claim the asset\n    // We may approve amount to transfer beforehand\n    function claim(address orderId) public payable _lock_ {\n        // Get Order\n        Order storage order = orders[orderId];\n        require(order.orderId!=address(0x0), 'ERR_ORDERNOTFOUND');   // verify order exists\n        require(order.state!=OrderState.PAID, 'ERR_ALREADYPAID');    // verify order is not paid\n        require(order.state==OrderState.CLOSED, 'ERR_MUSTBECLOSED'); // verify order is closed\n\n        // Get winning bid, index 0 no winning bid\n        uint index = getLastValidIndex(orderId);\n        require(index > 0, 'ERR_INVALIDBIDS');\n        Bid storage bid = orderBids[orderId][index-1];\n\n        // Seller/buyer\n        address sender = address(msg.sender);\n        address bidder = address(bid.bidder);\n        address payable seller = payable(order.owner);\n\n        require(bidder    != address(0x0),  'ERR_BIDNOTFOUND');   // verify bid exists\n        require(sender    == bidder,        'ERR_USERNOTWINNER'); // verify user is highest bidder\n        require(bid.price >= order.reserve, 'ERR_UNDERRESERVE');  // verify payment greater than reserve\n        require(msg.value == bid.price,     'ERR_INVALIDAMOUNT'); // verify payment in valid auction\n\n        // Pay fees to treasury\n        uint total = bid.price;\n        uint fees  = 0;\n        if(sellerFees > 0) {\n            fees = fees.add(total.mul(sellerFees).div(100));\n        }\n        if(buyerFees > 0) {\n            fees = fees.add(total.mul(buyerFees).div(100));\n        }\n        if(fees>0) { \n            treasury.transfer(fees);\n        }\n\n        // Pay royalties to author\n        uint royalties = 0;\n        if(order.royalties > 0 && order.beneficiary != address(0)) {\n            royalties = total.mul(order.royalties).div(100);\n            if(royalties>0) { \n                order.beneficiary.transfer(royalties);\n            }\n        }\n\n        // Transfer money left to seller\n        uint amount = total.sub(fees).sub(royalties);\n        if(amount > 0) {\n            seller.transfer(amount);\n        }\n\n        // Transfer token to new owner\n        transferProxy.transferToken(uint(order.tokenType), order.collection, order.owner, bidder, order.tokenId, 1);\n\n        // Order state\n        bid.state = BidState.PAID;\n        order.state = OrderState.PAID;\n        emit logClaim(orderId, order.tokenId, bid.bidder, order.price, order.fees, order.royalties, block.timestamp);\n    }\n\n\n    //---- ADMIN\n    \n    function getOperator() external view returns (address) {\n        return operator;\n    }\n\n    function setOperator(address payable any) external authorized {\n        operator = any;\n    }\n\n    function getTreasury() external view returns (address) {\n        return treasury;\n    }\n\n    function setTreasury(address payable any) external authorized {\n        treasury = any;\n    }\n\n    function getSellerFees() external view returns (uint) {\n        return sellerFees;\n    }\n\n    function setSellerFees(uint fee) external authorized {\n        sellerFees = fee;\n    }\n\n    function getBuyerFees() external view returns (uint) {\n        return buyerFees;\n    }\n\n    function setBuyerFees(uint fee) external authorized {\n        buyerFees = fee;\n    }\n\n    function getTransferProxy() external view returns (address) {\n        return address(transferProxy);\n    }\n\n    function setTransferProxy(TransferProxy proxy) external authorized {\n        transferProxy = proxy;\n    }\n\n    function gulp() external authorized _lock_ {\n        address self = address(this);\n        if(self.balance > 0) {\n            treasury.transfer(self.balance);\n        }\n    }\n}\n\n\n// END",
  "sourcePath": "/Users/home/Sites/davinci-old/davinci-contracts/contracts/token/auctions3.sol",
  "compiler": {
    "name": "solc",
    "version": "0.6.12+commit.27d51765.Emscripten.clang"
  },
  "schemaVersion": "3.3.4",
  "updatedAt": "2021-04-23T01:43:28.659Z",
  "devdoc": {
    "kind": "dev",
    "methods": {},
    "version": 1
  },
  "userdoc": {
    "kind": "user",
    "methods": {},
    "version": 1
  }
}