{
  "contractName": "Market3",
  "abi": [
    {
      "inputs": [],
      "stateMutability": "nonpayable",
      "type": "constructor"
    },
    {
      "anonymous": false,
      "inputs": [
        {
          "indexed": false,
          "internalType": "address",
          "name": "sender",
          "type": "address"
        },
        {
          "indexed": false,
          "internalType": "address",
          "name": "orderId",
          "type": "address"
        },
        {
          "indexed": false,
          "internalType": "uint256",
          "name": "tokenId",
          "type": "uint256"
        },
        {
          "indexed": false,
          "internalType": "address",
          "name": "buyer",
          "type": "address"
        },
        {
          "indexed": false,
          "internalType": "uint256",
          "name": "price",
          "type": "uint256"
        },
        {
          "indexed": false,
          "internalType": "uint256",
          "name": "qty",
          "type": "uint256"
        },
        {
          "indexed": false,
          "internalType": "uint256",
          "name": "payment",
          "type": "uint256"
        },
        {
          "indexed": false,
          "internalType": "uint256",
          "name": "fees",
          "type": "uint256"
        },
        {
          "indexed": false,
          "internalType": "uint256",
          "name": "royalties",
          "type": "uint256"
        }
      ],
      "name": "logSale",
      "type": "event"
    },
    {
      "inputs": [],
      "name": "buyerFees",
      "outputs": [
        {
          "internalType": "uint256",
          "name": "",
          "type": "uint256"
        }
      ],
      "stateMutability": "view",
      "type": "function"
    },
    {
      "inputs": [],
      "name": "operator",
      "outputs": [
        {
          "internalType": "address",
          "name": "",
          "type": "address"
        }
      ],
      "stateMutability": "view",
      "type": "function"
    },
    {
      "inputs": [],
      "name": "sellerFees",
      "outputs": [
        {
          "internalType": "uint256",
          "name": "",
          "type": "uint256"
        }
      ],
      "stateMutability": "view",
      "type": "function"
    },
    {
      "inputs": [],
      "name": "transferProxy",
      "outputs": [
        {
          "internalType": "contract TransferProxy",
          "name": "",
          "type": "address"
        }
      ],
      "stateMutability": "view",
      "type": "function"
    },
    {
      "inputs": [],
      "name": "treasury",
      "outputs": [
        {
          "internalType": "address payable",
          "name": "",
          "type": "address"
        }
      ],
      "stateMutability": "view",
      "type": "function"
    },
    {
      "inputs": [
        {
          "internalType": "address",
          "name": "orderId",
          "type": "address"
        },
        {
          "internalType": "address payable",
          "name": "owner",
          "type": "address"
        },
        {
          "internalType": "enum Market3.TokenType",
          "name": "tokenType",
          "type": "uint8"
        },
        {
          "internalType": "address",
          "name": "token",
          "type": "address"
        },
        {
          "internalType": "uint256",
          "name": "tokenId",
          "type": "uint256"
        },
        {
          "internalType": "uint256",
          "name": "amount",
          "type": "uint256"
        },
        {
          "internalType": "uint256",
          "name": "price",
          "type": "uint256"
        },
        {
          "internalType": "uint256",
          "name": "fees",
          "type": "uint256"
        },
        {
          "internalType": "uint256",
          "name": "royalties",
          "type": "uint256"
        },
        {
          "internalType": "address payable",
          "name": "beneficiary",
          "type": "address"
        },
        {
          "internalType": "uint256",
          "name": "enddate",
          "type": "uint256"
        }
      ],
      "name": "newOrder",
      "outputs": [],
      "stateMutability": "nonpayable",
      "type": "function"
    },
    {
      "inputs": [
        {
          "internalType": "address",
          "name": "orderId",
          "type": "address"
        }
      ],
      "name": "getOrder",
      "outputs": [
        {
          "components": [
            {
              "internalType": "address",
              "name": "orderId",
              "type": "address"
            },
            {
              "internalType": "address payable",
              "name": "owner",
              "type": "address"
            },
            {
              "internalType": "enum Market3.TokenType",
              "name": "tokenType",
              "type": "uint8"
            },
            {
              "internalType": "address",
              "name": "token",
              "type": "address"
            },
            {
              "internalType": "uint256",
              "name": "tokenId",
              "type": "uint256"
            },
            {
              "internalType": "uint256",
              "name": "amount",
              "type": "uint256"
            },
            {
              "internalType": "uint256",
              "name": "price",
              "type": "uint256"
            },
            {
              "internalType": "uint256",
              "name": "fees",
              "type": "uint256"
            },
            {
              "internalType": "uint256",
              "name": "royalties",
              "type": "uint256"
            },
            {
              "internalType": "address payable",
              "name": "beneficiary",
              "type": "address"
            },
            {
              "internalType": "uint256",
              "name": "enddate",
              "type": "uint256"
            },
            {
              "internalType": "enum Market3.OrderState",
              "name": "state",
              "type": "uint8"
            }
          ],
          "internalType": "struct Market3.Order",
          "name": "",
          "type": "tuple"
        }
      ],
      "stateMutability": "view",
      "type": "function"
    },
    {
      "inputs": [
        {
          "internalType": "address",
          "name": "orderId",
          "type": "address"
        },
        {
          "internalType": "uint256",
          "name": "amount",
          "type": "uint256"
        },
        {
          "internalType": "uint256",
          "name": "price",
          "type": "uint256"
        },
        {
          "internalType": "uint256",
          "name": "fees",
          "type": "uint256"
        },
        {
          "internalType": "uint256",
          "name": "royalties",
          "type": "uint256"
        },
        {
          "internalType": "address payable",
          "name": "beneficiary",
          "type": "address"
        },
        {
          "internalType": "uint256",
          "name": "enddate",
          "type": "uint256"
        }
      ],
      "name": "modOrder",
      "outputs": [],
      "stateMutability": "nonpayable",
      "type": "function"
    },
    {
      "inputs": [
        {
          "internalType": "address",
          "name": "orderId",
          "type": "address"
        }
      ],
      "name": "closeOrder",
      "outputs": [],
      "stateMutability": "nonpayable",
      "type": "function"
    },
    {
      "inputs": [
        {
          "internalType": "address",
          "name": "orderId",
          "type": "address"
        }
      ],
      "name": "cancelOrder",
      "outputs": [],
      "stateMutability": "nonpayable",
      "type": "function"
    },
    {
      "inputs": [
        {
          "internalType": "address",
          "name": "orderId",
          "type": "address"
        }
      ],
      "name": "removeOrder",
      "outputs": [],
      "stateMutability": "nonpayable",
      "type": "function"
    },
    {
      "inputs": [
        {
          "internalType": "address",
          "name": "orderId",
          "type": "address"
        },
        {
          "internalType": "address",
          "name": "buyer",
          "type": "address"
        },
        {
          "internalType": "uint256",
          "name": "qty",
          "type": "uint256"
        }
      ],
      "name": "buy",
      "outputs": [],
      "stateMutability": "payable",
      "type": "function"
    },
    {
      "inputs": [],
      "name": "getOperator",
      "outputs": [
        {
          "internalType": "address",
          "name": "",
          "type": "address"
        }
      ],
      "stateMutability": "view",
      "type": "function"
    },
    {
      "inputs": [
        {
          "internalType": "address payable",
          "name": "any",
          "type": "address"
        }
      ],
      "name": "setOperator",
      "outputs": [],
      "stateMutability": "nonpayable",
      "type": "function"
    },
    {
      "inputs": [],
      "name": "getTreasury",
      "outputs": [
        {
          "internalType": "address",
          "name": "",
          "type": "address"
        }
      ],
      "stateMutability": "view",
      "type": "function"
    },
    {
      "inputs": [
        {
          "internalType": "address payable",
          "name": "any",
          "type": "address"
        }
      ],
      "name": "setTreasury",
      "outputs": [],
      "stateMutability": "nonpayable",
      "type": "function"
    },
    {
      "inputs": [],
      "name": "getSellerFees",
      "outputs": [
        {
          "internalType": "uint256",
          "name": "",
          "type": "uint256"
        }
      ],
      "stateMutability": "view",
      "type": "function"
    },
    {
      "inputs": [
        {
          "internalType": "uint256",
          "name": "fee",
          "type": "uint256"
        }
      ],
      "name": "setSellerFees",
      "outputs": [],
      "stateMutability": "nonpayable",
      "type": "function"
    },
    {
      "inputs": [],
      "name": "getBuyerFees",
      "outputs": [
        {
          "internalType": "uint256",
          "name": "",
          "type": "uint256"
        }
      ],
      "stateMutability": "view",
      "type": "function"
    },
    {
      "inputs": [
        {
          "internalType": "uint256",
          "name": "fee",
          "type": "uint256"
        }
      ],
      "name": "setBuyerFees",
      "outputs": [],
      "stateMutability": "nonpayable",
      "type": "function"
    },
    {
      "inputs": [],
      "name": "getTransferProxy",
      "outputs": [
        {
          "internalType": "address",
          "name": "",
          "type": "address"
        }
      ],
      "stateMutability": "view",
      "type": "function"
    },
    {
      "inputs": [
        {
          "internalType": "contract TransferProxy",
          "name": "proxy",
          "type": "address"
        }
      ],
      "name": "setTransferProxy",
      "outputs": [],
      "stateMutability": "nonpayable",
      "type": "function"
    },
    {
      "inputs": [],
      "name": "gulp",
      "outputs": [],
      "stateMutability": "nonpayable",
      "type": "function"
    }
  ],
  "bytecode": "0x608060405234801561001057600080fd5b5060008054336001600160a01b031991821681178355600180549092161790556002808055600355611d9c90819061004890396000f3fe6080604052600436106101805760003560e01c80638ae42905116100d6578063b1f2f99c1161007f578063e7f43c6811610059578063e7f43c68146103c7578063f0f44260146103dc578063f9bf8006146103fc57610180565b8063b1f2f99c1461037d578063b3ab15fb14610392578063b7a7d0dd146103b257610180565b806399c49852116100b057806399c4985214610328578063aeea2c6014610348578063afa19bea1461035d57610180565b80638ae42905146102d357806390e72127146102f357806394909e621461031357610180565b806359ab0f05116101385780636e667db3116101125780636e667db3146102715780636eba2b13146102865780637545335b146102b357610180565b806359ab0f051461021a57806361d027b31461023c5780636e14afcc1461025157610180565b80633b19e84a116101695780633b19e84a146101ba5780633bc54ed4146101e5578063570ca7351461020557610180565b8063153e66e6146101855780632257db691461019a575b600080fd5b61019861019336600461173e565b610411565b005b3480156101a657600080fd5b506101986101b536600461177e565b610b57565b3480156101c657600080fd5b506101cf610c5f565b6040516101dc919061185b565b60405180910390f35b3480156101f157600080fd5b50610198610200366004611659565b610c6e565b34801561021157600080fd5b506101cf610dbf565b34801561022657600080fd5b5061022f610dce565b6040516101dc9190611d10565b34801561024857600080fd5b506101cf610dd4565b34801561025d57600080fd5b5061019861026c366004611806565b610de3565b34801561027d57600080fd5b506101cf610e12565b34801561029257600080fd5b506102a66102a1366004611659565b610e21565b6040516101dc9190611c54565b3480156102bf57600080fd5b506101986102ce366004611806565b610f1a565b3480156102df57600080fd5b506101986102ee366004611659565b610f49565b3480156102ff57600080fd5b5061019861030e366004611659565b610f95565b34801561031f57600080fd5b50610198611060565b34801561033457600080fd5b50610198610343366004611659565b61111e565b34801561035457600080fd5b5061022f6111d7565b34801561036957600080fd5b50610198610378366004611691565b6111dd565b34801561038957600080fd5b5061022f61144d565b34801561039e57600080fd5b506101986103ad366004611659565b611453565b3480156103be57600080fd5b5061022f61149f565b3480156103d357600080fd5b506101cf6114a5565b3480156103e857600080fd5b506101986103f7366004611659565b6114b4565b34801561040857600080fd5b506101cf611500565b600454600160a01b900460ff16156104445760405162461bcd60e51b815260040161043b90611baf565b60405180910390fd5b6004805460ff60a01b1916600160a01b1790556001600160a01b03831661047d5760405162461bcd60e51b815260040161043b90611b0a565b6000811161049d5760405162461bcd60e51b815260040161043b90611963565b6001600160a01b03808416600090815260056020526040902080549091166104d75760405162461bcd60e51b815260040161043b9061192c565b6001600a82015460ff1660048111156104ec57fe5b146105095760405162461bcd60e51b815260040161043b90611b78565b60018101546001600160a01b031634600080600185810154600160a01b900460ff169081111561053557fe5b141561069e5760028401546004805460405163e985e9c560e01b81526001600160a01b039384169363e985e9c5936105729389939216910161186f565b60206040518083038186803b15801561058a57600080fd5b505afa15801561059e573d6000803e3d6000fd5b505050506040513d601f19601f820116820180604052508101906105c291906117e6565b6105de5760405162461bcd60e51b815260040161043b90611ad3565b600284015460038501546040517f6352211e0000000000000000000000000000000000000000000000000000000081526001600160a01b0390921691636352211e9161062c91600401611d10565b60206040518083038186803b15801561064457600080fd5b505afa158015610658573d6000803e3d6000fd5b505050506040513d601f19601f8201168201806040525081019061067c9190611675565b6001600160a01b0316836001600160a01b03161415610699575060015b6107e8565b60028401546004805460405163e985e9c560e01b81526001600160a01b039384169363e985e9c5936106d59389939216910161186f565b60206040518083038186803b1580156106ed57600080fd5b505afa158015610701573d6000803e3d6000fd5b505050506040513d601f19601f8201168201806040525081019061072591906117e6565b6107415760405162461bcd60e51b815260040161043b90611ad3565b6002840154600185015460038601546040517efdd58e0000000000000000000000000000000000000000000000000000000081526001600160a01b039384169362fdd58e93610795939116916004016118dc565b60206040518083038186803b1580156107ad57600080fd5b505afa1580156107c1573d6000803e3d6000fd5b505050506040513d601f19601f820116820180604052508101906107e5919061181e565b90505b848110156108085760405162461bcd60e51b815260040161043b90611a3f565b848460040154101561082c5760405162461bcd60e51b815260040161043b90611be6565b600061084585600501548761150f90919063ffffffff16565b9050808310156108675760405162461bcd60e51b815260040161043b90611b41565b6002546000901561089f5761089c610895606461088f6002548661150f90919063ffffffff16565b90611552565b8290611584565b90505b600354156108c7576108c4610895606461088f6003548661150f90919063ffffffff16565b90505b8015610909576001546040516001600160a01b039091169082156108fc029083906000818181858888f19350505050158015610907573d6000803e3d6000fd5b505b600080876007015411801561092a575060088701546001600160a01b031615155b156109915761094b606461088f89600701548661150f90919063ffffffff16565b905080156109915760088701546040516001600160a01b039091169082156108fc029083906000818181858888f1935050505015801561098f573d6000803e3d6000fd5b505b60006109a7826109a186866115a9565b906115a9565b905080156109e7576040516001600160a01b0388169082156108fc029083906000818181858888f193505050501580156109e5573d6000803e3d6000fd5b505b6004546001898101546001600160a01b0390921691639277e3f691600160a01b90910460ff1690811115610a1757fe5b8a60020160009054906101000a90046001600160a01b03168b60010160009054906101000a90046001600160a01b03168e8d600301548f6040518763ffffffff1660e01b8152600401610a6f96959493929190611d19565b600060405180830381600087803b158015610a8957600080fd5b505af1158015610a9d573d6000803e3d6000fd5b5050506004890154610ab091508a6115a9565b6004890155610abf858a6115a9565b94508488600401541115610ad557600488018590555b6004880154610aee57600a8801805460ff191660021790555b7fc1c9af82db34eb9330d628256b7faae7b2a8550b8ea366416ca17ea77bd55a54338c8a600301548d8c600501548e8c8a8a604051610b3599989796959493929190611889565b60405180910390a150506004805460ff60a01b19169055505050505050505050565b600454600160a01b900460ff1615610b815760405162461bcd60e51b815260040161043b90611baf565b6004805460ff60a01b1916600160a01b179055600054336001600160a01b0390911614610bc05760405162461bcd60e51b815260040161043b90611a08565b6001600160a01b0387811660009081526005602052604090205416610bf75760405162461bcd60e51b815260040161043b9061192c565b6001600160a01b03968716600090815260056020819052604090912060048082019890985590810195909555600685019390935560078401919091556008830180546001600160a01b031916919095161790935560090191909155805460ff60a01b19169055565b6001546001600160a01b031690565b600454600160a01b900460ff1615610c985760405162461bcd60e51b815260040161043b90611baf565b6004805460ff60a01b1916600160a01b179055600054336001600160a01b0390911614610cd75760405162461bcd60e51b815260040161043b90611a08565b6001600160a01b0380821660009081526005602052604090208054909116610d115760405162461bcd60e51b815260040161043b9061192c565b506001600160a01b03166000908152600560208190526040822080546001600160a01b031990811682556001820180547fffffffffffffffffffffff00000000000000000000000000000000000000000016905560028201805482169055600382018490556004808301859055928201849055600682018490556007820184905560088201805490911690556009810192909255600a909101805460ff19169055805460ff60a01b19169055565b6000546001600160a01b031681565b60025481565b6001546001600160a01b031681565b6000546001600160a01b03163314610e0d5760405162461bcd60e51b815260040161043b90611a08565b600255565b6004546001600160a01b031681565b610e296115d1565b6001600160a01b0382811660009081526005602090815260409182902082516101808101845281548516815260018083015495861693820193909352939092840191600160a01b90910460ff1690811115610e8057fe5b6001811115610e8b57fe5b815260028201546001600160a01b03908116602083015260038301546040830152600480840154606084015260058401546080840152600684015460a0840152600784015460c0840152600884015490911660e08301526009830154610100830152600a8301546101209092019160ff1690811115610f0657fe5b6004811115610f1157fe5b90525092915050565b6000546001600160a01b03163314610f445760405162461bcd60e51b815260040161043b90611a08565b600355565b6000546001600160a01b03163314610f735760405162461bcd60e51b815260040161043b90611a08565b600480546001600160a01b0319166001600160a01b0392909216919091179055565b600454600160a01b900460ff1615610fbf5760405162461bcd60e51b815260040161043b90611baf565b6004805460ff60a01b1916600160a01b179055600054336001600160a01b0390911614610ffe5760405162461bcd60e51b815260040161043b90611a08565b6001600160a01b03808216600090815260056020526040902080549091166110385760405162461bcd60e51b815260040161043b9061192c565b600a810180546002919060ff19166001835b0217905550506004805460ff60a01b1916905550565b600454600160a01b900460ff161561108a5760405162461bcd60e51b815260040161043b90611baf565b6004805460ff60a01b1916600160a01b179055600054336001600160a01b03909116146110c95760405162461bcd60e51b815260040161043b90611a08565b3080311561110e576001546040516001600160a01b039182169183163180156108fc02916000818181858888f1935050505015801561110c573d6000803e3d6000fd5b505b506004805460ff60a01b19169055565b600454600160a01b900460ff16156111485760405162461bcd60e51b815260040161043b90611baf565b6004805460ff60a01b1916600160a01b179055600054336001600160a01b03909116146111875760405162461bcd60e51b815260040161043b90611a08565b6001600160a01b03808216600090815260056020526040902080549091166111c15760405162461bcd60e51b815260040161043b9061192c565b600a810180546004919060ff191660018361104a565b60035481565b600454600160a01b900460ff16156112075760405162461bcd60e51b815260040161043b90611baf565b6004805460ff60a01b1916600160a01b179055600054336001600160a01b03909116146112465760405162461bcd60e51b815260040161043b90611a08565b6001600160a01b038b8116600090815260056020526040902054161561127e5760405162461bcd60e51b815260040161043b90611c1d565b6112866115d1565b6040518061018001604052808d6001600160a01b031681526020018c6001600160a01b031681526020018b60018111156112bc57fe5b81526020018a6001600160a01b03168152602001898152602001888152602001878152602001868152602001858152602001846001600160a01b031681526020018381526020016001600481111561131057fe5b90526001600160a01b038d8116600090815260056020908152604091829020845181546001600160a01b0319908116918616919091178255918501516001808301805490941691909516178083559285015194955085949093909260ff60a01b191690600160a01b90849081111561138457fe5b021790555060608201516002820180546001600160a01b03199081166001600160a01b03938416179091556080840151600384015560a084015160048085019190915560c0850151600585015560e08501516006850155610100850151600785015561012085015160088501805490931693169290921790556101408301516009830155610160830151600a830180549192909160ff191690600190849081111561142b57fe5b0217905550506004805460ff60a01b1916905550505050505050505050505050565b60025490565b6000546001600160a01b0316331461147d5760405162461bcd60e51b815260040161043b90611a08565b600080546001600160a01b0319166001600160a01b0392909216919091179055565b60035490565b6000546001600160a01b031690565b6000546001600160a01b031633146114de5760405162461bcd60e51b815260040161043b90611a08565b600180546001600160a01b0319166001600160a01b0392909216919091179055565b6004546001600160a01b031690565b60008261151e5750600061154c565b8282028284828161152b57fe5b04146115495760405162461bcd60e51b815260040161043b90611a76565b90505b92915050565b60008082116115735760405162461bcd60e51b815260040161043b906119d1565b81838161157c57fe5b049392505050565b6000828201838110156115495760405162461bcd60e51b815260040161043b906118f5565b6000828211156115cb5760405162461bcd60e51b815260040161043b9061199a565b50900390565b60408051610180810182526000808252602082018190529091820190815260200160006001600160a01b03168152602001600081526020016000815260200160008152602001600081526020016000815260200160006001600160a01b03168152602001600081526020016000600481111561164957fe5b905290565b803561154c81611d4e565b60006020828403121561166a578081fd5b813561154981611d4e565b600060208284031215611686578081fd5b815161154981611d4e565b60008060008060008060008060008060006101608c8e0312156116b2578687fd5b8b356116bd81611d4e565b9a5060208c01356116cd81611d4e565b995060408c0135600281106116e0578788fd5b985060608c01356116f081611d4e565b975060808c0135965060a08c0135955060c08c0135945060e08c013593506101008c013592506117248d6101208e0161164e565b91506101408c013590509295989b509295989b9093969950565b600080600060608486031215611752578283fd5b833561175d81611d4e565b9250602084013561176d81611d4e565b929592945050506040919091013590565b600080600080600080600060e0888a031215611798578283fd5b87356117a381611d4e565b96506020880135955060408801359450606088013593506080880135925060a08801356117cf81611d4e565b8092505060c0880135905092959891949750929550565b6000602082840312156117f7578081fd5b81518015158114611549578182fd5b600060208284031215611817578081fd5b5035919050565b60006020828403121561182f578081fd5b5051919050565b6001600160a01b03169052565b6005811061184d57fe5b9052565b6002811061184d57fe5b6001600160a01b0391909116815260200190565b6001600160a01b0392831681529116602082015260400190565b6001600160a01b03998a16815297891660208901526040880196909652939096166060860152608085019190915260a084015260c083019390935260e08201929092526101008101919091526101200190565b6001600160a01b03929092168252602082015260400190565b6020808252601b908201527f536166654d6174683a206164646974696f6e206f766572666c6f770000000000604082015260600190565b60208082526011908201527f4552525f4f524445524e4f54464f554e44000000000000000000000000000000604082015260600190565b60208082526013908201527f4552525f494e56414c49445155414e5449545900000000000000000000000000604082015260600190565b6020808252601e908201527f536166654d6174683a207375627472616374696f6e206f766572666c6f770000604082015260600190565b6020808252601a908201527f536166654d6174683a206469766973696f6e206279207a65726f000000000000604082015260600190565b60208082526010908201527f4552525f554e415554484f52495a454400000000000000000000000000000000604082015260600190565b60208082526016908201527f4552525f434f504945534e4f54415641494c41424c4500000000000000000000604082015260600190565b60208082526021908201527f536166654d6174683a206d756c7469706c69636174696f6e206f766572666c6f60408201527f7700000000000000000000000000000000000000000000000000000000000000606082015260800190565b6020808252600f908201527f4552525f4e4f544f50455241544f520000000000000000000000000000000000604082015260600190565b60208082526012908201527f4552525f494e56414c49444f5244455249440000000000000000000000000000604082015260600190565b60208082526015908201527f4552525f494e53554646494349454e5446554e44530000000000000000000000604082015260600190565b60208082526010908201527f4552525f4f524445524e4f544f50454e00000000000000000000000000000000604082015260600190565b60208082526012908201527f4552525f494e56414c49445245454e5452590000000000000000000000000000604082015260600190565b60208082526013908201527f4552525f5154594e4f54415641494c41424c4500000000000000000000000000604082015260600190565b6020808252600f908201527f4552525f4f524445524558495354530000000000000000000000000000000000604082015260600190565b600061018082019050611c68828451611836565b6020830151611c7a6020840182611836565b506040830151611c8d6040840182611851565b506060830151611ca06060840182611836565b506080830151608083015260a083015160a083015260c083015160c083015260e083015160e083015261010080840151818401525061012080840151611ce882850182611836565b5050610140838101519083015261016080840151611d0882850182611843565b505092915050565b90815260200190565b9586526001600160a01b039485166020870152928416604086015292166060840152608083019190915260a082015260c00190565b6001600160a01b0381168114611d6357600080fd5b5056fea26469706673582212207869fcbd957c0d493fe94d76a9fe67a1767e92c3138e5a67ffa34ef0312b8b3964736f6c634300060c0033",
  "immutableReferences": {},
  "source": "// 2021.03.31\n\npragma solidity ^0.6.12;\npragma experimental ABIEncoderV2;\n\nimport '../exchange/TransferProxy.sol';\nimport '../lib/contracts/ERC721.sol';\nimport '../lib/contracts/ERC1155.sol';\n\n\ncontract Market3 {\n    using SafeMath for uint;\n\n    event logSale(address sender, address orderId, uint tokenId, address buyer, uint price, uint qty, uint payment, uint fees, uint royalties);\n\n\taddress         public  operator;  // Market operator\n\taddress payable public  treasury;  // Fee collector\n\tuint            public  sellerFees;\n\tuint            public  buyerFees;\n\tTransferProxy   public  transferProxy;\n\n    enum OrderType  {SALE, AUCTION}\n    enum TokenType  {ERC721, ERC1155}\n    enum OrderState {DRAFT, OPEN, CLOSED, PAUSED, CANCELLED}\n\n    struct Order {\n        address         orderId;\n        address payable owner;\n        TokenType       tokenType;\n        address         token;\n        uint            tokenId;\n        uint            amount;\n        uint            price;\n        uint            fees;\n        uint            royalties;\n        address payable beneficiary;\n        uint            enddate;\n        OrderState      state;\n    }\n    \n    bool private _mutex; // reentry check\n\tmapping(address => Order) internal orders; // orders by orderid\n\n    modifier _lock_() {\n        require(!_mutex, \"ERR_INVALIDREENTRY\");\n        _mutex = true;\n        _;\n        _mutex = false;\n    }\n\n    modifier _viewlock_() {\n        require(!_mutex, \"ERR_INVALIDREENTRY\");\n        _;\n    }\n\n    modifier authorized() {\n        require(msg.sender==operator, 'ERR_UNAUTHORIZED');\n        _;\n    }\n\n    constructor() public {\n    \taddress payable caller = payable(msg.sender);\n        operator   = caller;\n        treasury   = caller;\n        sellerFees = 2;\n        buyerFees  = 2;\n    }\n\n\tfunction newOrder(address orderId, address payable owner, TokenType tokenType, address token, uint tokenId, uint amount, uint price, uint fees, uint royalties, address payable beneficiary, uint enddate) external _lock_ {\n        require(msg.sender==operator, 'ERR_UNAUTHORIZED');\n        require(orders[orderId].orderId==address(0x0), 'ERR_ORDEREXISTS');\n        Order memory order = Order(orderId, owner, tokenType, token, tokenId, amount, price, fees, royalties, beneficiary, enddate, OrderState.OPEN);\n        orders[orderId] = order;\n\t}\n\n\tfunction getOrder(address orderId) external view returns (Order memory) {\n\t\treturn orders[orderId];\n\t}\n\n\tfunction modOrder(address orderId, uint amount, uint price, uint fees, uint royalties, address payable beneficiary, uint enddate) external _lock_ {\n        require(msg.sender==operator, 'ERR_UNAUTHORIZED');\n        require(orders[orderId].orderId!=address(0x0), 'ERR_ORDERNOTFOUND');\n        orders[orderId].amount = amount;\n        orders[orderId].price = price;\n        orders[orderId].fees = fees;\n        orders[orderId].royalties = royalties;\n        orders[orderId].beneficiary = beneficiary;\n        orders[orderId].enddate = enddate;\n\t}\n\n\tfunction closeOrder(address orderId) public _lock_ {\n        require(msg.sender==operator, 'ERR_UNAUTHORIZED');\n\t\tOrder storage order = orders[orderId];\n\t\trequire(order.orderId!=address(0x0), 'ERR_ORDERNOTFOUND');\n\t\torder.state = OrderState.CLOSED;\n\t}\n\n\tfunction cancelOrder(address orderId) public _lock_ {\n        require(msg.sender==operator, 'ERR_UNAUTHORIZED');\n\t\tOrder storage order = orders[orderId];\n\t\trequire(order.orderId!=address(0x0), 'ERR_ORDERNOTFOUND');\n\t\torder.state = OrderState.CANCELLED;\n\t\t// Remove from orders?\n\t}\n\t\n\tfunction removeOrder(address orderId) public _lock_ {\n        require(msg.sender==operator, 'ERR_UNAUTHORIZED');\n\t\tOrder storage order = orders[orderId];\n\t\trequire(order.orderId!=address(0x0), 'ERR_ORDERNOTFOUND');\n\t\tdelete orders[orderId];\n\t}\n\t\n\t// Anybody can buy, but this contract has to be approved by the token seller\n\t// Buyer sends money to this contract then fees and royalties are deducted from payment\n\t// Money is then transferred to treasury, beneficiary and seller\n\t// Token is transferred from seller to buyer\n\tfunction buy(address orderId, address buyer, uint qty) public payable _lock_ {\n        require(orderId != address(0), \"ERR_INVALIDORDERID\");\n\t\trequire(qty > 0, 'ERR_INVALIDQUANTITY');\n\n\t\t// Verify order exists\n\t\tOrder storage order = orders[orderId];\n\t\trequire(order.orderId != address(0), 'ERR_ORDERNOTFOUND');\n\n\t\t// verify token is for sale\n\t\trequire(order.state == OrderState.OPEN, 'ERR_ORDERNOTOPEN');\n\n\t\taddress payable seller = payable(order.owner);\n\t\t//address buyer = address(msg.sender);\n        uint payment = uint(msg.value);\n        //require(payment > 0, \"ERR_INVALIDPAYMENT\");  // Free stuff allowed?\n\t\t\n\t\t// verify copies available\n\t\tuint copies = 0;\n\t\tif(order.tokenType==TokenType.ERC721) {\n\t    \trequire(IERC721(order.token).isApprovedForAll(seller, address(transferProxy)), 'ERR_NOTOPERATOR');\n\t\t\tif(seller==IERC721(order.token).ownerOf(order.tokenId)) {\n\t\t\t\tcopies = 1;\n\t\t\t}\n\t\t} else {\n\t    \trequire(IERC1155(order.token).isApprovedForAll(seller, address(transferProxy)), 'ERR_NOTOPERATOR');\n\t\t\tcopies = IERC1155(order.token).balanceOf(order.owner, order.tokenId);\n\t\t}\n\n\t\trequire(copies >= qty, 'ERR_COPIESNOTAVAILABLE');\n\t\trequire(order.amount >= qty, 'ERR_QTYNOTAVAILABLE');\n\n\t\t// verify money received is equal to qty*price\n\t\tuint total = qty.mul(order.price);\n\t\trequire(payment >= total, 'ERR_INSUFFICIENTFUNDS');\n\n\t\t// pay fees to treasury\n\t\tuint fees = 0;\n\t\tif(sellerFees > 0) {\n\t\t\tfees = fees.add(total.mul(sellerFees).div(100));\n\t\t}\n\t\tif(buyerFees > 0) {\n\t\t\tfees = fees.add(total.mul(buyerFees).div(100));\n\t\t}\n\t\tif(fees>0) { \n\t\t\ttreasury.transfer(fees);\n\t\t}\n\n\t\t// pay royalties to author\n\t\tuint royalties = 0;\n\t\tif(order.royalties > 0 && order.beneficiary != address(0)) {\n\t\t\troyalties = total.mul(order.royalties).div(100);\n\t\t\tif(royalties>0) { \n\t\t\t\torder.beneficiary.transfer(royalties);\n\t\t\t}\n\t\t}\n\n\t\t// transfer money left to seller\n\t\tuint amount = total.sub(fees).sub(royalties);\n\t\tif(amount > 0) {\n\t\t\tseller.transfer(amount);\n\t\t}\n\n\t\t// transfer token to new owner\n\t\ttransferProxy.transferToken(uint(order.tokenType), order.token, order.owner, buyer, order.tokenId, qty);\n\n\t\t// check if copies sold externally\n\t\torder.amount = order.amount.sub(qty);\n\t\tcopies = copies.sub(qty);\n\t\tif(order.amount>copies) { \n\t\t\torder.amount = copies; \n\t\t}\n\n\t\t// set status closed if no copies left\n\t\tif(order.amount == 0) {\n\t\t\torder.state = OrderState.CLOSED;\n\t\t}\n\n    \temit logSale(msg.sender, orderId, order.tokenId, buyer, order.price, qty, payment, fees, royalties);\n\t}\n\n    function getOperator() external view returns (address) {\n        return operator;\n    }\n\n    function setOperator(address payable any) external {\n        require(msg.sender==operator, 'ERR_UNAUTHORIZED');\n        operator = any;\n    }\n\n    function getTreasury() external view returns (address) {\n        return treasury;\n    }\n\n    function setTreasury(address payable any) external {\n        require(msg.sender==operator, 'ERR_UNAUTHORIZED');\n        treasury = any;\n    }\n\n    function getSellerFees() external view returns (uint) {\n        return sellerFees;\n    }\n\n    function setSellerFees(uint fee) external {\n        require(msg.sender==operator, 'ERR_UNAUTHORIZED');\n        sellerFees = fee;\n    }\n\n    function getBuyerFees() external view returns (uint) {\n        return buyerFees;\n    }\n\n    function setBuyerFees(uint fee) external {\n        require(msg.sender==operator, 'ERR_UNAUTHORIZED');\n        buyerFees = fee;\n    }\n\n    function getTransferProxy() external view returns (address) {\n        return address(transferProxy);\n    }\n\n    function setTransferProxy(TransferProxy proxy) external {\n        require(msg.sender==operator, 'ERR_UNAUTHORIZED');\n        transferProxy = proxy;\n    }\n\n    function gulp() external _lock_ {\n        require(msg.sender==operator, 'ERR_UNAUTHORIZED');\n        address self = address(this);\n        if(self.balance > 0) {\n        \ttreasury.transfer(self.balance);\n        }\n    }\n}\n\n\n// END",
  "sourcePath": "/Users/home/Sites/davinci-old/davinci-contracts/contracts/token/market3.sol",
  "compiler": {
    "name": "solc",
    "version": "0.6.12+commit.27d51765.Emscripten.clang"
  },
  "schemaVersion": "3.3.4",
  "updatedAt": "2021-04-01T20:56:38.912Z",
  "devdoc": {
    "kind": "dev",
    "methods": {},
    "version": 1
  },
  "userdoc": {
    "kind": "user",
    "methods": {},
    "version": 1
  }
}