{
  "contractName": "TransferProxy",
  "abi": [
    {
      "anonymous": false,
      "inputs": [
        {
          "indexed": true,
          "internalType": "address",
          "name": "account",
          "type": "address"
        }
      ],
      "name": "OperatorAdded",
      "type": "event"
    },
    {
      "anonymous": false,
      "inputs": [
        {
          "indexed": true,
          "internalType": "address",
          "name": "account",
          "type": "address"
        }
      ],
      "name": "OperatorRemoved",
      "type": "event"
    },
    {
      "anonymous": false,
      "inputs": [
        {
          "indexed": true,
          "internalType": "address",
          "name": "previousOwner",
          "type": "address"
        },
        {
          "indexed": true,
          "internalType": "address",
          "name": "newOwner",
          "type": "address"
        }
      ],
      "name": "OwnershipTransferred",
      "type": "event"
    },
    {
      "inputs": [
        {
          "internalType": "address",
          "name": "account",
          "type": "address"
        }
      ],
      "name": "addOperator",
      "outputs": [],
      "stateMutability": "nonpayable",
      "type": "function"
    },
    {
      "inputs": [
        {
          "internalType": "address",
          "name": "account",
          "type": "address"
        }
      ],
      "name": "isOperator",
      "outputs": [
        {
          "internalType": "bool",
          "name": "",
          "type": "bool"
        }
      ],
      "stateMutability": "view",
      "type": "function"
    },
    {
      "inputs": [],
      "name": "owner",
      "outputs": [
        {
          "internalType": "address",
          "name": "",
          "type": "address"
        }
      ],
      "stateMutability": "view",
      "type": "function"
    },
    {
      "inputs": [
        {
          "internalType": "address",
          "name": "account",
          "type": "address"
        }
      ],
      "name": "removeOperator",
      "outputs": [],
      "stateMutability": "nonpayable",
      "type": "function"
    },
    {
      "inputs": [],
      "name": "renounceOwnership",
      "outputs": [],
      "stateMutability": "nonpayable",
      "type": "function"
    },
    {
      "inputs": [
        {
          "internalType": "address",
          "name": "newOwner",
          "type": "address"
        }
      ],
      "name": "transferOwnership",
      "outputs": [],
      "stateMutability": "nonpayable",
      "type": "function"
    },
    {
      "inputs": [
        {
          "internalType": "contract IERC721",
          "name": "token",
          "type": "address"
        },
        {
          "internalType": "address",
          "name": "from",
          "type": "address"
        },
        {
          "internalType": "address",
          "name": "to",
          "type": "address"
        },
        {
          "internalType": "uint256",
          "name": "tokenId",
          "type": "uint256"
        }
      ],
      "name": "erc721safeTransferFrom",
      "outputs": [],
      "stateMutability": "nonpayable",
      "type": "function"
    },
    {
      "inputs": [
        {
          "internalType": "contract IERC1155",
          "name": "token",
          "type": "address"
        },
        {
          "internalType": "address",
          "name": "from",
          "type": "address"
        },
        {
          "internalType": "address",
          "name": "to",
          "type": "address"
        },
        {
          "internalType": "uint256",
          "name": "id",
          "type": "uint256"
        },
        {
          "internalType": "uint256",
          "name": "value",
          "type": "uint256"
        },
        {
          "internalType": "bytes",
          "name": "data",
          "type": "bytes"
        }
      ],
      "name": "erc1155safeTransferFrom",
      "outputs": [],
      "stateMutability": "nonpayable",
      "type": "function"
    },
    {
      "inputs": [
        {
          "internalType": "uint256",
          "name": "tokenType",
          "type": "uint256"
        },
        {
          "internalType": "address",
          "name": "tokenAddress",
          "type": "address"
        },
        {
          "internalType": "address",
          "name": "from",
          "type": "address"
        },
        {
          "internalType": "address",
          "name": "to",
          "type": "address"
        },
        {
          "internalType": "uint256",
          "name": "id",
          "type": "uint256"
        },
        {
          "internalType": "uint256",
          "name": "amount",
          "type": "uint256"
        }
      ],
      "name": "transferToken",
      "outputs": [],
      "stateMutability": "nonpayable",
      "type": "function"
    }
  ],
  "bytecode": "0x608060405234801561001057600080fd5b50600061001b61006a565b600080546001600160a01b0319166001600160a01b0383169081178255604051929350917f8be0079c531659141344cd1fd0a4f28419497f9722a3daafe3b4186f6b6457e0908290a35061006e565b3390565b610baa8061007d6000396000f3fe608060405234801561001057600080fd5b50600436106100a35760003560e01c80639870d7fe11610076578063ac8a584a1161005b578063ac8a584a1461021b578063f2fde38b14610241578063f709b90614610267576100a3565b80639870d7fe146101585780639c1c2ee91461017e576100a3565b80636d70f7ae146100a8578063715018a6146100e25780638da5cb5b146100ec5780639277e3f614610110575b600080fd5b6100ce600480360360208110156100be57600080fd5b50356001600160a01b03166102a3565b604080519115158252519081900360200190f35b6100ea6102b6565b005b6100f4610381565b604080516001600160a01b039092168252519081900360200190f35b6100ea600480360360c081101561012657600080fd5b508035906001600160a01b03602082013581169160408101358216916060820135169060808101359060a00135610390565b6100ea6004803603602081101561016e57600080fd5b50356001600160a01b031661050b565b6100ea600480360360c081101561019457600080fd5b6001600160a01b038235811692602081013582169260408201359092169160608201359160808101359181019060c0810160a08201356401000000008111156101dc57600080fd5b8201836020820111156101ee57600080fd5b8035906020019184600183028401116401000000008311171561021057600080fd5b50909250905061058b565b6100ea6004803603602081101561023157600080fd5b50356001600160a01b0316610696565b6100ea6004803603602081101561025757600080fd5b50356001600160a01b0316610713565b6100ea6004803603608081101561027d57600080fd5b506001600160a01b03813581169160208101358216916040820135169060600135610834565b60006102b0600183610900565b92915050565b6102be610967565b6001600160a01b03166102cf610381565b6001600160a01b03161461032a576040805162461bcd60e51b815260206004820181905260248201527f4f776e61626c653a2063616c6c6572206973206e6f7420746865206f776e6572604482015290519081900360640190fd5b600080546040516001600160a01b03909116907f8be0079c531659141344cd1fd0a4f28419497f9722a3daafe3b4186f6b6457e0908390a36000805473ffffffffffffffffffffffffffffffffffffffff19169055565b6000546001600160a01b031690565b6103a061039b610967565b6102a3565b6103db5760405162461bcd60e51b8152600401808060200182810382526034815260200180610afe6034913960400191505060405180910390fd5b8561046557846001600160a01b03166342842e0e8585856040518463ffffffff1660e01b815260040180846001600160a01b03168152602001836001600160a01b031681526020018281526020019350505050600060405180830381600087803b15801561044857600080fd5b505af115801561045c573d6000803e3d6000fd5b50505050610503565b604080517ff242432a0000000000000000000000000000000000000000000000000000000081526001600160a01b0386811660048301528581166024830152604482018590526064820184905260a06084830152600060a4830181905292519088169263f242432a9260e4808201939182900301818387803b1580156104ea57600080fd5b505af11580156104fe573d6000803e3d6000fd5b505050505b505050505050565b610513610967565b6001600160a01b0316610524610381565b6001600160a01b03161461057f576040805162461bcd60e51b815260206004820181905260248201527f4f776e61626c653a2063616c6c6572206973206e6f7420746865206f776e6572604482015290519081900360640190fd5b6105888161096b565b50565b61059661039b610967565b6105d15760405162461bcd60e51b8152600401808060200182810382526034815260200180610afe6034913960400191505060405180910390fd5b866001600160a01b031663f242432a8787878787876040518763ffffffff1660e01b815260040180876001600160a01b03168152602001866001600160a01b03168152602001858152602001848152602001806020018281038252848482818152602001925080828437600081840152601f19601f820116905080830192505050975050505050505050600060405180830381600087803b15801561067557600080fd5b505af1158015610689573d6000803e3d6000fd5b5050505050505050505050565b61069e610967565b6001600160a01b03166106af610381565b6001600160a01b03161461070a576040805162461bcd60e51b815260206004820181905260248201527f4f776e61626c653a2063616c6c6572206973206e6f7420746865206f776e6572604482015290519081900360640190fd5b610588816109ad565b61071b610967565b6001600160a01b031661072c610381565b6001600160a01b031614610787576040805162461bcd60e51b815260206004820181905260248201527f4f776e61626c653a2063616c6c6572206973206e6f7420746865206f776e6572604482015290519081900360640190fd5b6001600160a01b0381166107cc5760405162461bcd60e51b8152600401808060200182810382526026815260200180610ad86026913960400191505060405180910390fd5b600080546040516001600160a01b03808516939216917f8be0079c531659141344cd1fd0a4f28419497f9722a3daafe3b4186f6b6457e091a36000805473ffffffffffffffffffffffffffffffffffffffff19166001600160a01b0392909216919091179055565b61083f61039b610967565b61087a5760405162461bcd60e51b8152600401808060200182810382526034815260200180610afe6034913960400191505060405180910390fd5b836001600160a01b03166342842e0e8484846040518463ffffffff1660e01b815260040180846001600160a01b03168152602001836001600160a01b031681526020018281526020019350505050600060405180830381600087803b1580156108e257600080fd5b505af11580156108f6573d6000803e3d6000fd5b5050505050505050565b60006001600160a01b0382166109475760405162461bcd60e51b8152600401808060200182810382526022815260200180610b536022913960400191505060405180910390fd5b506001600160a01b03166000908152602091909152604090205460ff1690565b3390565b6109766001826109ef565b6040516001600160a01b038216907fac6fa858e9350a46cec16539926e0fde25b7629f84b5a72bffaae4df888ae86d90600090a250565b6109b8600182610a70565b6040516001600160a01b038216907f80c0b871b97b595b16a7741c1b06fed0c6f6f558639f18ccbce50724325dc40d90600090a250565b6109f98282610900565b15610a4b576040805162461bcd60e51b815260206004820152601f60248201527f526f6c65733a206163636f756e7420616c72656164792068617320726f6c6500604482015290519081900360640190fd5b6001600160a01b0316600090815260209190915260409020805460ff19166001179055565b610a7a8282610900565b610ab55760405162461bcd60e51b8152600401808060200182810382526021815260200180610b326021913960400191505060405180910390fd5b6001600160a01b0316600090815260209190915260409020805460ff1916905556fe4f776e61626c653a206e6577206f776e657220697320746865207a65726f20616464726573734f70657261746f72526f6c653a2063616c6c657220646f6573206e6f74206861766520746865204f70657261746f7220726f6c65526f6c65733a206163636f756e7420646f6573206e6f74206861766520726f6c65526f6c65733a206163636f756e7420697320746865207a65726f2061646472657373a26469706673582212201ef0984285d6275a3e2b16cf9dc74290c79976e3aa6790716ef985c88048554164736f6c634300060c0033",
  "immutableReferences": {},
  "source": "pragma solidity ^0.6.12;\n\nimport \"../lib/interface/IERC721.sol\";\nimport \"../lib/interface/IERC1155.sol\";\nimport \"./OwnableOperatorRole.sol\";\n\ncontract TransferProxy is OwnableOperatorRole {\n\n    function erc721safeTransferFrom(IERC721 token, address from, address to, uint256 tokenId) public onlyOperator {\n        token.safeTransferFrom(from, to, tokenId);\n    }\n\n    function erc1155safeTransferFrom(IERC1155 token, address from, address to, uint256 id, uint256 value, bytes calldata data) public onlyOperator {\n        token.safeTransferFrom(from, to, id, value, data);\n    }\n\n    function transferToken(uint tokenType, address tokenAddress, address from, address to, uint id, uint amount) public onlyOperator {\n\t\tif(tokenType==0) {\n        \tIERC721(tokenAddress).safeTransferFrom(from, to, id);\n\t\t} else {\n        \tIERC1155(tokenAddress).safeTransferFrom(from, to, id, amount, \"\");\n\t\t}\n    }\n\n}\n",
  "sourcePath": "/Users/home/Sites/davinci-old/davinci-contracts/contracts/exchange/TransferProxy.sol",
  "compiler": {
    "name": "solc",
    "version": "0.6.12+commit.27d51765.Emscripten.clang"
  },
  "schemaVersion": "3.3.4",
  "updatedAt": "2021-04-01T20:56:38.885Z",
  "devdoc": {
    "kind": "dev",
    "methods": {
      "owner()": {
        "details": "Returns the address of the current owner."
      },
      "renounceOwnership()": {
        "details": "Leaves the contract without owner. It will not be possible to call `onlyOwner` functions anymore. Can only be called by the current owner. NOTE: Renouncing ownership will leave the contract without an owner, thereby removing any functionality that is only available to the owner."
      },
      "transferOwnership(address)": {
        "details": "Transfers ownership of the contract to a new account (`newOwner`). Can only be called by the current owner."
      }
    },
    "version": 1
  },
  "userdoc": {
    "kind": "user",
    "methods": {},
    "version": 1
  }
}